{
  "_format": "hh-sol-artifact-1",
  "contractName": "Exactly",
  "sourceName": "contracts/Exactly.sol",
  "abi": [
    {
      "inputs": [],
      "stateMutability": "nonpayable",
      "type": "constructor"
    },
    {
      "inputs": [],
      "name": "Exactly__NotOwner",
      "type": "error"
    },
    {
      "anonymous": false,
      "inputs": [
        {
          "indexed": true,
          "internalType": "address",
          "name": "owner",
          "type": "address"
        },
        {
          "indexed": true,
          "internalType": "address",
          "name": "approved",
          "type": "address"
        },
        {
          "indexed": true,
          "internalType": "uint256",
          "name": "tokenId",
          "type": "uint256"
        }
      ],
      "name": "Approval",
      "type": "event"
    },
    {
      "anonymous": false,
      "inputs": [
        {
          "indexed": true,
          "internalType": "address",
          "name": "owner",
          "type": "address"
        },
        {
          "indexed": true,
          "internalType": "address",
          "name": "operator",
          "type": "address"
        },
        {
          "indexed": false,
          "internalType": "bool",
          "name": "approved",
          "type": "bool"
        }
      ],
      "name": "ApprovalForAll",
      "type": "event"
    },
    {
      "anonymous": false,
      "inputs": [
        {
          "indexed": false,
          "internalType": "uint256",
          "name": "id",
          "type": "uint256"
        },
        {
          "indexed": false,
          "internalType": "string",
          "name": "hashContent",
          "type": "string"
        },
        {
          "indexed": false,
          "internalType": "uint256",
          "name": "tipAmount",
          "type": "uint256"
        },
        {
          "indexed": false,
          "internalType": "address payable",
          "name": "author",
          "type": "address"
        }
      ],
      "name": "Exactly__PostCreated",
      "type": "event"
    },
    {
      "anonymous": false,
      "inputs": [
        {
          "indexed": false,
          "internalType": "uint256",
          "name": "id",
          "type": "uint256"
        },
        {
          "indexed": false,
          "internalType": "string",
          "name": "hashContent",
          "type": "string"
        },
        {
          "indexed": false,
          "internalType": "uint256",
          "name": "tipAmount",
          "type": "uint256"
        },
        {
          "indexed": false,
          "internalType": "address payable",
          "name": "author",
          "type": "address"
        }
      ],
      "name": "Exactly__PostTipped",
      "type": "event"
    },
    {
      "anonymous": false,
      "inputs": [
        {
          "indexed": true,
          "internalType": "address",
          "name": "from",
          "type": "address"
        },
        {
          "indexed": true,
          "internalType": "address",
          "name": "to",
          "type": "address"
        },
        {
          "indexed": true,
          "internalType": "uint256",
          "name": "tokenId",
          "type": "uint256"
        }
      ],
      "name": "Transfer",
      "type": "event"
    },
    {
      "inputs": [
        {
          "internalType": "address",
          "name": "to",
          "type": "address"
        },
        {
          "internalType": "uint256",
          "name": "tokenId",
          "type": "uint256"
        }
      ],
      "name": "approve",
      "outputs": [],
      "stateMutability": "nonpayable",
      "type": "function"
    },
    {
      "inputs": [
        {
          "internalType": "address",
          "name": "owner",
          "type": "address"
        }
      ],
      "name": "balanceOf",
      "outputs": [
        {
          "internalType": "uint256",
          "name": "",
          "type": "uint256"
        }
      ],
      "stateMutability": "view",
      "type": "function"
    },
    {
      "inputs": [
        {
          "internalType": "uint256",
          "name": "tokenId",
          "type": "uint256"
        }
      ],
      "name": "getApproved",
      "outputs": [
        {
          "internalType": "address",
          "name": "",
          "type": "address"
        }
      ],
      "stateMutability": "view",
      "type": "function"
    },
    {
      "inputs": [
        {
          "internalType": "uint256",
          "name": "postCount",
          "type": "uint256"
        }
      ],
      "name": "getPost",
      "outputs": [
        {
          "components": [
            {
              "internalType": "uint256",
              "name": "id",
              "type": "uint256"
            },
            {
              "internalType": "string",
              "name": "hashContent",
              "type": "string"
            },
            {
              "internalType": "uint256",
              "name": "tipAmount",
              "type": "uint256"
            },
            {
              "internalType": "address payable",
              "name": "author",
              "type": "address"
            }
          ],
          "internalType": "struct Exactly.Post",
          "name": "",
          "type": "tuple"
        }
      ],
      "stateMutability": "view",
      "type": "function"
    },
    {
      "inputs": [],
      "name": "getPostCount",
      "outputs": [
        {
          "internalType": "uint256",
          "name": "",
          "type": "uint256"
        }
      ],
      "stateMutability": "view",
      "type": "function"
    },
    {
      "inputs": [],
      "name": "getTokenCount",
      "outputs": [
        {
          "internalType": "uint256",
          "name": "",
          "type": "uint256"
        }
      ],
      "stateMutability": "view",
      "type": "function"
    },
    {
      "inputs": [
        {
          "internalType": "address",
          "name": "profile",
          "type": "address"
        }
      ],
      "name": "getTokenIdForProfile",
      "outputs": [
        {
          "internalType": "uint256",
          "name": "",
          "type": "uint256"
        }
      ],
      "stateMutability": "view",
      "type": "function"
    },
    {
      "inputs": [
        {
          "internalType": "address",
          "name": "owner",
          "type": "address"
        },
        {
          "internalType": "address",
          "name": "operator",
          "type": "address"
        }
      ],
      "name": "isApprovedForAll",
      "outputs": [
        {
          "internalType": "bool",
          "name": "",
          "type": "bool"
        }
      ],
      "stateMutability": "view",
      "type": "function"
    },
    {
      "inputs": [
        {
          "internalType": "string",
          "name": "_tokenURI",
          "type": "string"
        }
      ],
      "name": "mint",
      "outputs": [
        {
          "internalType": "uint256",
          "name": "",
          "type": "uint256"
        }
      ],
      "stateMutability": "nonpayable",
      "type": "function"
    },
    {
      "inputs": [],
      "name": "name",
      "outputs": [
        {
          "internalType": "string",
          "name": "",
          "type": "string"
        }
      ],
      "stateMutability": "view",
      "type": "function"
    },
    {
      "inputs": [
        {
          "internalType": "uint256",
          "name": "tokenId",
          "type": "uint256"
        }
      ],
      "name": "ownerOf",
      "outputs": [
        {
          "internalType": "address",
          "name": "",
          "type": "address"
        }
      ],
      "stateMutability": "view",
      "type": "function"
    },
    {
      "inputs": [
        {
          "internalType": "address",
          "name": "from",
          "type": "address"
        },
        {
          "internalType": "address",
          "name": "to",
          "type": "address"
        },
        {
          "internalType": "uint256",
          "name": "tokenId",
          "type": "uint256"
        }
      ],
      "name": "safeTransferFrom",
      "outputs": [],
      "stateMutability": "nonpayable",
      "type": "function"
    },
    {
      "inputs": [
        {
          "internalType": "address",
          "name": "from",
          "type": "address"
        },
        {
          "internalType": "address",
          "name": "to",
          "type": "address"
        },
        {
          "internalType": "uint256",
          "name": "tokenId",
          "type": "uint256"
        },
        {
          "internalType": "bytes",
          "name": "data",
          "type": "bytes"
        }
      ],
      "name": "safeTransferFrom",
      "outputs": [],
      "stateMutability": "nonpayable",
      "type": "function"
    },
    {
      "inputs": [
        {
          "internalType": "address",
          "name": "operator",
          "type": "address"
        },
        {
          "internalType": "bool",
          "name": "approved",
          "type": "bool"
        }
      ],
      "name": "setApprovalForAll",
      "outputs": [],
      "stateMutability": "nonpayable",
      "type": "function"
    },
    {
      "inputs": [
        {
          "internalType": "uint256",
          "name": "_tokenId",
          "type": "uint256"
        }
      ],
      "name": "setProfile",
      "outputs": [],
      "stateMutability": "nonpayable",
      "type": "function"
    },
    {
      "inputs": [
        {
          "internalType": "bytes4",
          "name": "interfaceId",
          "type": "bytes4"
        }
      ],
      "name": "supportsInterface",
      "outputs": [
        {
          "internalType": "bool",
          "name": "",
          "type": "bool"
        }
      ],
      "stateMutability": "view",
      "type": "function"
    },
    {
      "inputs": [],
      "name": "symbol",
      "outputs": [
        {
          "internalType": "string",
          "name": "",
          "type": "string"
        }
      ],
      "stateMutability": "view",
      "type": "function"
    },
    {
      "inputs": [
        {
          "internalType": "uint256",
          "name": "tokenId",
          "type": "uint256"
        }
      ],
      "name": "tokenURI",
      "outputs": [
        {
          "internalType": "string",
          "name": "",
          "type": "string"
        }
      ],
      "stateMutability": "view",
      "type": "function"
    },
    {
      "inputs": [
        {
          "internalType": "address",
          "name": "from",
          "type": "address"
        },
        {
          "internalType": "address",
          "name": "to",
          "type": "address"
        },
        {
          "internalType": "uint256",
          "name": "tokenId",
          "type": "uint256"
        }
      ],
      "name": "transferFrom",
      "outputs": [],
      "stateMutability": "nonpayable",
      "type": "function"
    }
  ],
  "bytecode": "0x60806040523480156200001157600080fd5b506040518060400160405280600781526020017f45786163746c79000000000000000000000000000000000000000000000000008152506040518060400160405280600381526020017f4558430000000000000000000000000000000000000000000000000000000000815250816000908051906020019062000096929190620000b8565b508060019080519060200190620000af929190620000b8565b505050620001cd565b828054620000c69062000168565b90600052602060002090601f016020900481019282620000ea576000855562000136565b82601f106200010557805160ff191683800117855562000136565b8280016001018555821562000136579182015b828111156200013557825182559160200191906001019062000118565b5b50905062000145919062000149565b5090565b5b80821115620001645760008160009055506001016200014a565b5090565b600060028204905060018216806200018157607f821691505b602082108114156200019857620001976200019e565b5b50919050565b7f4e487b7100000000000000000000000000000000000000000000000000000000600052602260045260246000fd5b612d2880620001dd6000396000f3fe608060405234801561001057600080fd5b50600436106101215760003560e01c806370a08231116100ad578063b88d4fde11610071578063b88d4fde1461032c578063bcc9540714610348578063c87b56dd14610366578063d85d3d2714610396578063e985e9c5146103c657610121565b806370a082311461028857806378a89567146102b857806385d3cb37146102d657806395d89b41146102f2578063a22cb4651461031057610121565b806323b872dd116100f457806323b872dd146101c057806340731c24146101dc57806342842e0e1461020c5780636352211e146102285780636938e5fa1461025857610121565b806301ffc9a71461012657806306fdde0314610156578063081812fc14610174578063095ea7b3146101a4575b600080fd5b610140600480360381019061013b9190611f03565b6103f6565b60405161014d9190612378565b60405180910390f35b61015e6104d8565b60405161016b9190612393565b60405180910390f35b61018e60048036038101906101899190611f96565b61056a565b60405161019b9190612311565b60405180910390f35b6101be60048036038101906101b99190611ec7565b6105b0565b005b6101da60048036038101906101d59190611dc1565b6106c8565b005b6101f660048036038101906101f19190611f96565b610728565b6040516102039190612535565b60405180910390f35b61022660048036038101906102219190611dc1565b610851565b005b610242600480360381019061023d9190611f96565b610871565b60405161024f9190612311565b60405180910390f35b610272600480360381019061026d9190611d5c565b610923565b60405161027f9190612557565b60405180910390f35b6102a2600480360381019061029d9190611d5c565b61096c565b6040516102af9190612557565b60405180910390f35b6102c0610a24565b6040516102cd9190612557565b60405180910390f35b6102f060048036038101906102eb9190611f96565b610a2e565b005b6102fa610ae2565b6040516103079190612393565b60405180910390f35b61032a60048036038101906103259190611e8b565b610b74565b005b61034660048036038101906103419190611e10565b610b8a565b005b610350610bec565b60405161035d9190612557565b60405180910390f35b610380600480360381019061037b9190611f96565b610bf6565b60405161038d9190612393565b60405180910390f35b6103b060048036038101906103ab9190611f55565b610d09565b6040516103bd9190612557565b60405180910390f35b6103e060048036038101906103db9190611d85565b610d50565b6040516103ed9190612378565b60405180910390f35b60007f80ac58cd000000000000000000000000000000000000000000000000000000007bffffffffffffffffffffffffffffffffffffffffffffffffffffffff1916827bffffffffffffffffffffffffffffffffffffffffffffffffffffffff191614806104c157507f5b5e139f000000000000000000000000000000000000000000000000000000007bffffffffffffffffffffffffffffffffffffffffffffffffffffffff1916827bffffffffffffffffffffffffffffffffffffffffffffffffffffffff1916145b806104d157506104d082610de4565b5b9050919050565b6060600080546104e7906127d0565b80601f0160208091040260200160405190810160405280929190818152602001828054610513906127d0565b80156105605780601f1061053557610100808354040283529160200191610560565b820191906000526020600020905b81548152906001019060200180831161054357829003601f168201915b5050505050905090565b600061057582610e4e565b6004600083815260200190815260200160002060009054906101000a900473ffffffffffffffffffffffffffffffffffffffff169050919050565b60006105bb82610871565b90508073ffffffffffffffffffffffffffffffffffffffff168373ffffffffffffffffffffffffffffffffffffffff16141561062c576040517f08c379a0000000000000000000000000000000000000000000000000000000008152600401610623906124f5565b60405180910390fd5b8073ffffffffffffffffffffffffffffffffffffffff1661064b610e99565b73ffffffffffffffffffffffffffffffffffffffff16148061067a575061067981610674610e99565b610d50565b5b6106b9576040517f08c379a00000000000000000000000000000000000000000000000000000000081526004016106b090612495565b60405180910390fd5b6106c38383610ea1565b505050565b6106d96106d3610e99565b82610f5a565b610718576040517f08c379a000000000000000000000000000000000000000000000000000000000815260040161070f90612515565b60405180910390fd5b610723838383610fef565b505050565b610730611b42565b6009600083815260200190815260200160002060405180608001604052908160008201548152602001600182018054610768906127d0565b80601f0160208091040260200160405190810160405280929190818152602001828054610794906127d0565b80156107e15780601f106107b6576101008083540402835291602001916107e1565b820191906000526020600020905b8154815290600101906020018083116107c457829003601f168201915b50505050508152602001600282015481526020016003820160009054906101000a900473ffffffffffffffffffffffffffffffffffffffff1673ffffffffffffffffffffffffffffffffffffffff1673ffffffffffffffffffffffffffffffffffffffff16815250509050919050565b61086c83838360405180602001604052806000815250610b8a565b505050565b6000806002600084815260200190815260200160002060009054906101000a900473ffffffffffffffffffffffffffffffffffffffff169050600073ffffffffffffffffffffffffffffffffffffffff168173ffffffffffffffffffffffffffffffffffffffff16141561091a576040517f08c379a0000000000000000000000000000000000000000000000000000000008152600401610911906124d5565b60405180910390fd5b80915050919050565b6000600a60008373ffffffffffffffffffffffffffffffffffffffff1673ffffffffffffffffffffffffffffffffffffffff168152602001908152602001600020549050919050565b60008073ffffffffffffffffffffffffffffffffffffffff168273ffffffffffffffffffffffffffffffffffffffff1614156109dd576040517f08c379a00000000000000000000000000000000000000000000000000000000081526004016109d490612455565b60405180910390fd5b600360008373ffffffffffffffffffffffffffffffffffffffff1673ffffffffffffffffffffffffffffffffffffffff168152602001908152602001600020549050919050565b6000600754905090565b610a3781610871565b73ffffffffffffffffffffffffffffffffffffffff163373ffffffffffffffffffffffffffffffffffffffff1614610a9b576040517f99c6f40300000000000000000000000000000000000000000000000000000000815260040160405180910390fd5b80600a60003373ffffffffffffffffffffffffffffffffffffffff1673ffffffffffffffffffffffffffffffffffffffff1681526020019081526020016000208190555050565b606060018054610af1906127d0565b80601f0160208091040260200160405190810160405280929190818152602001828054610b1d906127d0565b8015610b6a5780601f10610b3f57610100808354040283529160200191610b6a565b820191906000526020600020905b815481529060010190602001808311610b4d57829003601f168201915b5050505050905090565b610b86610b7f610e99565b8383611256565b5050565b610b9b610b95610e99565b83610f5a565b610bda576040517f08c379a0000000000000000000000000000000000000000000000000000000008152600401610bd190612515565b60405180910390fd5b610be6848484846113c3565b50505050565b6000600754905090565b6060610c0182610e4e565b6000600660008481526020019081526020016000208054610c21906127d0565b80601f0160208091040260200160405190810160405280929190818152602001828054610c4d906127d0565b8015610c9a5780601f10610c6f57610100808354040283529160200191610c9a565b820191906000526020600020905b815481529060010190602001808311610c7d57829003601f168201915b505050505090506000610cab61141f565b9050600081511415610cc1578192505050610d04565b600082511115610cf6578082604051602001610cde9291906122ed565b60405160208183030381529060405292505050610d04565b610cff84611436565b925050505b919050565b600060076000815480929190610d1e90612833565b9190505550610d2f3360075461149e565b610d3b600754836114bc565b610d46600754610a2e565b6007549050919050565b6000600560008473ffffffffffffffffffffffffffffffffffffffff1673ffffffffffffffffffffffffffffffffffffffff16815260200190815260200160002060008373ffffffffffffffffffffffffffffffffffffffff1673ffffffffffffffffffffffffffffffffffffffff16815260200190815260200160002060009054906101000a900460ff16905092915050565b60007f01ffc9a7000000000000000000000000000000000000000000000000000000007bffffffffffffffffffffffffffffffffffffffffffffffffffffffff1916827bffffffffffffffffffffffffffffffffffffffffffffffffffffffff1916149050919050565b610e5781611530565b610e96576040517f08c379a0000000000000000000000000000000000000000000000000000000008152600401610e8d906124d5565b60405180910390fd5b50565b600033905090565b816004600083815260200190815260200160002060006101000a81548173ffffffffffffffffffffffffffffffffffffffff021916908373ffffffffffffffffffffffffffffffffffffffff160217905550808273ffffffffffffffffffffffffffffffffffffffff16610f1483610871565b73ffffffffffffffffffffffffffffffffffffffff167f8c5be1e5ebec7d5bd14f71427d1e84f3dd0314c0f7b2291e5b200ac8c7c3b92560405160405180910390a45050565b600080610f6683610871565b90508073ffffffffffffffffffffffffffffffffffffffff168473ffffffffffffffffffffffffffffffffffffffff161480610fa85750610fa78185610d50565b5b80610fe657508373ffffffffffffffffffffffffffffffffffffffff16610fce8461056a565b73ffffffffffffffffffffffffffffffffffffffff16145b91505092915050565b8273ffffffffffffffffffffffffffffffffffffffff1661100f82610871565b73ffffffffffffffffffffffffffffffffffffffff1614611065576040517f08c379a000000000000000000000000000000000000000000000000000000000815260040161105c906123d5565b60405180910390fd5b600073ffffffffffffffffffffffffffffffffffffffff168273ffffffffffffffffffffffffffffffffffffffff1614156110d5576040517f08c379a00000000000000000000000000000000000000000000000000000000081526004016110cc90612415565b60405180910390fd5b6110e083838361159c565b6110eb600082610ea1565b6001600360008573ffffffffffffffffffffffffffffffffffffffff1673ffffffffffffffffffffffffffffffffffffffff168152602001908152602001600020600082825461113b91906126d4565b925050819055506001600360008473ffffffffffffffffffffffffffffffffffffffff1673ffffffffffffffffffffffffffffffffffffffff1681526020019081526020016000206000828254611192919061264d565b92505081905550816002600083815260200190815260200160002060006101000a81548173ffffffffffffffffffffffffffffffffffffffff021916908373ffffffffffffffffffffffffffffffffffffffff160217905550808273ffffffffffffffffffffffffffffffffffffffff168473ffffffffffffffffffffffffffffffffffffffff167fddf252ad1be2c89b69c2b068fc378daa952ba7f163c4a11628f55a4df523b3ef60405160405180910390a46112518383836115a1565b505050565b8173ffffffffffffffffffffffffffffffffffffffff168373ffffffffffffffffffffffffffffffffffffffff1614156112c5576040517f08c379a00000000000000000000000000000000000000000000000000000000081526004016112bc90612435565b60405180910390fd5b80600560008573ffffffffffffffffffffffffffffffffffffffff1673ffffffffffffffffffffffffffffffffffffffff16815260200190815260200160002060008473ffffffffffffffffffffffffffffffffffffffff1673ffffffffffffffffffffffffffffffffffffffff16815260200190815260200160002060006101000a81548160ff0219169083151502179055508173ffffffffffffffffffffffffffffffffffffffff168373ffffffffffffffffffffffffffffffffffffffff167f17307eab39ab6107e8899845ad3d59bd9653f200f220920489ca2b5937696c31836040516113b69190612378565b60405180910390a3505050565b6113ce848484610fef565b6113da848484846115a6565b611419576040517f08c379a0000000000000000000000000000000000000000000000000000000008152600401611410906123b5565b60405180910390fd5b50505050565b606060405180602001604052806000815250905090565b606061144182610e4e565b600061144b61141f565b9050600081511161146b5760405180602001604052806000815250611496565b806114758461173d565b6040516020016114869291906122ed565b6040516020818303038152906040525b915050919050565b6114b88282604051806020016040528060008152506118ea565b5050565b6114c582611530565b611504576040517f08c379a00000000000000000000000000000000000000000000000000000000081526004016114fb90612475565b60405180910390fd5b8060066000848152602001908152602001600020908051906020019061152b929190611b80565b505050565b60008073ffffffffffffffffffffffffffffffffffffffff166002600084815260200190815260200160002060009054906101000a900473ffffffffffffffffffffffffffffffffffffffff1673ffffffffffffffffffffffffffffffffffffffff1614159050919050565b505050565b505050565b60006115c78473ffffffffffffffffffffffffffffffffffffffff16611945565b15611730578373ffffffffffffffffffffffffffffffffffffffff1663150b7a026115f0610e99565b8786866040518563ffffffff1660e01b8152600401611612949392919061232c565b602060405180830381600087803b15801561162c57600080fd5b505af192505050801561165d57506040513d601f19601f8201168201806040525081019061165a9190611f2c565b60015b6116e0573d806000811461168d576040519150601f19603f3d011682016040523d82523d6000602084013e611692565b606091505b506000815114156116d8576040517f08c379a00000000000000000000000000000000000000000000000000000000081526004016116cf906123b5565b60405180910390fd5b805181602001fd5b63150b7a0260e01b7bffffffffffffffffffffffffffffffffffffffffffffffffffffffff1916817bffffffffffffffffffffffffffffffffffffffffffffffffffffffff191614915050611735565b600190505b949350505050565b60606000821415611785576040518060400160405280600181526020017f300000000000000000000000000000000000000000000000000000000000000081525090506118e5565b600082905060005b600082146117b75780806117a090612833565b915050600a826117b091906126a3565b915061178d565b60008167ffffffffffffffff8111156117f9577f4e487b7100000000000000000000000000000000000000000000000000000000600052604160045260246000fd5b6040519080825280601f01601f19166020018201604052801561182b5781602001600182028036833780820191505090505b5090505b600085146118de5760018261184491906126d4565b9150600a85611853919061287c565b603061185f919061264d565b60f81b81838151811061189b577f4e487b7100000000000000000000000000000000000000000000000000000000600052603260045260246000fd5b60200101907effffffffffffffffffffffffffffffffffffffffffffffffffffffffffffff1916908160001a905350600a856118d791906126a3565b945061182f565b8093505050505b919050565b6118f48383611968565b61190160008484846115a6565b611940576040517f08c379a0000000000000000000000000000000000000000000000000000000008152600401611937906123b5565b60405180910390fd5b505050565b6000808273ffffffffffffffffffffffffffffffffffffffff163b119050919050565b600073ffffffffffffffffffffffffffffffffffffffff168273ffffffffffffffffffffffffffffffffffffffff1614156119d8576040517f08c379a00000000000000000000000000000000000000000000000000000000081526004016119cf906124b5565b60405180910390fd5b6119e181611530565b15611a21576040517f08c379a0000000000000000000000000000000000000000000000000000000008152600401611a18906123f5565b60405180910390fd5b611a2d6000838361159c565b6001600360008473ffffffffffffffffffffffffffffffffffffffff1673ffffffffffffffffffffffffffffffffffffffff1681526020019081526020016000206000828254611a7d919061264d565b92505081905550816002600083815260200190815260200160002060006101000a81548173ffffffffffffffffffffffffffffffffffffffff021916908373ffffffffffffffffffffffffffffffffffffffff160217905550808273ffffffffffffffffffffffffffffffffffffffff16600073ffffffffffffffffffffffffffffffffffffffff167fddf252ad1be2c89b69c2b068fc378daa952ba7f163c4a11628f55a4df523b3ef60405160405180910390a4611b3e600083836115a1565b5050565b6040518060800160405280600081526020016060815260200160008152602001600073ffffffffffffffffffffffffffffffffffffffff1681525090565b828054611b8c906127d0565b90600052602060002090601f016020900481019282611bae5760008555611bf5565b82601f10611bc757805160ff1916838001178555611bf5565b82800160010185558215611bf5579182015b82811115611bf4578251825591602001919060010190611bd9565b5b509050611c029190611c06565b5090565b5b80821115611c1f576000816000905550600101611c07565b5090565b6000611c36611c3184612597565b612572565b905082815260208101848484011115611c4e57600080fd5b611c5984828561278e565b509392505050565b6000611c74611c6f846125c8565b612572565b905082815260208101848484011115611c8c57600080fd5b611c9784828561278e565b509392505050565b600081359050611cae81612c96565b92915050565b600081359050611cc381612cad565b92915050565b600081359050611cd881612cc4565b92915050565b600081519050611ced81612cc4565b92915050565b600082601f830112611d0457600080fd5b8135611d14848260208601611c23565b91505092915050565b600082601f830112611d2e57600080fd5b8135611d3e848260208601611c61565b91505092915050565b600081359050611d5681612cdb565b92915050565b600060208284031215611d6e57600080fd5b6000611d7c84828501611c9f565b91505092915050565b60008060408385031215611d9857600080fd5b6000611da685828601611c9f565b9250506020611db785828601611c9f565b9150509250929050565b600080600060608486031215611dd657600080fd5b6000611de486828701611c9f565b9350506020611df586828701611c9f565b9250506040611e0686828701611d47565b9150509250925092565b60008060008060808587031215611e2657600080fd5b6000611e3487828801611c9f565b9450506020611e4587828801611c9f565b9350506040611e5687828801611d47565b925050606085013567ffffffffffffffff811115611e7357600080fd5b611e7f87828801611cf3565b91505092959194509250565b60008060408385031215611e9e57600080fd5b6000611eac85828601611c9f565b9250506020611ebd85828601611cb4565b9150509250929050565b60008060408385031215611eda57600080fd5b6000611ee885828601611c9f565b9250506020611ef985828601611d47565b9150509250929050565b600060208284031215611f1557600080fd5b6000611f2384828501611cc9565b91505092915050565b600060208284031215611f3e57600080fd5b6000611f4c84828501611cde565b91505092915050565b600060208284031215611f6757600080fd5b600082013567ffffffffffffffff811115611f8157600080fd5b611f8d84828501611d1d565b91505092915050565b600060208284031215611fa857600080fd5b6000611fb684828501611d47565b91505092915050565b611fc88161271a565b82525050565b611fd781612708565b82525050565b611fe68161272c565b82525050565b6000611ff7826125f9565b612001818561260f565b935061201181856020860161279d565b61201a81612969565b840191505092915050565b600061203082612604565b61203a8185612620565b935061204a81856020860161279d565b61205381612969565b840191505092915050565b600061206982612604565b6120738185612631565b935061208381856020860161279d565b61208c81612969565b840191505092915050565b60006120a282612604565b6120ac8185612642565b93506120bc81856020860161279d565b80840191505092915050565b60006120d5603283612631565b91506120e08261297a565b604082019050919050565b60006120f8602583612631565b9150612103826129c9565b604082019050919050565b600061211b601c83612631565b915061212682612a18565b602082019050919050565b600061213e602483612631565b915061214982612a41565b604082019050919050565b6000612161601983612631565b915061216c82612a90565b602082019050919050565b6000612184602983612631565b915061218f82612ab9565b604082019050919050565b60006121a7602e83612631565b91506121b282612b08565b604082019050919050565b60006121ca603e83612631565b91506121d582612b57565b604082019050919050565b60006121ed602083612631565b91506121f882612ba6565b602082019050919050565b6000612210601883612631565b915061221b82612bcf565b602082019050919050565b6000612233602183612631565b915061223e82612bf8565b604082019050919050565b6000612256602e83612631565b915061226182612c47565b604082019050919050565b600060808301600083015161228460008601826122cf565b506020830151848203602086015261229c8282612025565b91505060408301516122b160408601826122cf565b5060608301516122c46060860182611fbf565b508091505092915050565b6122d881612784565b82525050565b6122e781612784565b82525050565b60006122f98285612097565b91506123058284612097565b91508190509392505050565b60006020820190506123266000830184611fce565b92915050565b60006080820190506123416000830187611fce565b61234e6020830186611fce565b61235b60408301856122de565b818103606083015261236d8184611fec565b905095945050505050565b600060208201905061238d6000830184611fdd565b92915050565b600060208201905081810360008301526123ad818461205e565b905092915050565b600060208201905081810360008301526123ce816120c8565b9050919050565b600060208201905081810360008301526123ee816120eb565b9050919050565b6000602082019050818103600083015261240e8161210e565b9050919050565b6000602082019050818103600083015261242e81612131565b9050919050565b6000602082019050818103600083015261244e81612154565b9050919050565b6000602082019050818103600083015261246e81612177565b9050919050565b6000602082019050818103600083015261248e8161219a565b9050919050565b600060208201905081810360008301526124ae816121bd565b9050919050565b600060208201905081810360008301526124ce816121e0565b9050919050565b600060208201905081810360008301526124ee81612203565b9050919050565b6000602082019050818103600083015261250e81612226565b9050919050565b6000602082019050818103600083015261252e81612249565b9050919050565b6000602082019050818103600083015261254f818461226c565b905092915050565b600060208201905061256c60008301846122de565b92915050565b600061257c61258d565b90506125888282612802565b919050565b6000604051905090565b600067ffffffffffffffff8211156125b2576125b161293a565b5b6125bb82612969565b9050602081019050919050565b600067ffffffffffffffff8211156125e3576125e261293a565b5b6125ec82612969565b9050602081019050919050565b600081519050919050565b600081519050919050565b600082825260208201905092915050565b600082825260208201905092915050565b600082825260208201905092915050565b600081905092915050565b600061265882612784565b915061266383612784565b9250827fffffffffffffffffffffffffffffffffffffffffffffffffffffffffffffffff03821115612698576126976128ad565b5b828201905092915050565b60006126ae82612784565b91506126b983612784565b9250826126c9576126c86128dc565b5b828204905092915050565b60006126df82612784565b91506126ea83612784565b9250828210156126fd576126fc6128ad565b5b828203905092915050565b600061271382612764565b9050919050565b600061272582612764565b9050919050565b60008115159050919050565b60007fffffffff0000000000000000000000000000000000000000000000000000000082169050919050565b600073ffffffffffffffffffffffffffffffffffffffff82169050919050565b6000819050919050565b82818337600083830152505050565b60005b838110156127bb5780820151818401526020810190506127a0565b838111156127ca576000848401525b50505050565b600060028204905060018216806127e857607f821691505b602082108114156127fc576127fb61290b565b5b50919050565b61280b82612969565b810181811067ffffffffffffffff8211171561282a5761282961293a565b5b80604052505050565b600061283e82612784565b91507fffffffffffffffffffffffffffffffffffffffffffffffffffffffffffffffff821415612871576128706128ad565b5b600182019050919050565b600061288782612784565b915061289283612784565b9250826128a2576128a16128dc565b5b828206905092915050565b7f4e487b7100000000000000000000000000000000000000000000000000000000600052601160045260246000fd5b7f4e487b7100000000000000000000000000000000000000000000000000000000600052601260045260246000fd5b7f4e487b7100000000000000000000000000000000000000000000000000000000600052602260045260246000fd5b7f4e487b7100000000000000000000000000000000000000000000000000000000600052604160045260246000fd5b6000601f19601f8301169050919050565b7f4552433732313a207472616e7366657220746f206e6f6e20455243373231526560008201527f63656976657220696d706c656d656e7465720000000000000000000000000000602082015250565b7f4552433732313a207472616e736665722066726f6d20696e636f72726563742060008201527f6f776e6572000000000000000000000000000000000000000000000000000000602082015250565b7f4552433732313a20746f6b656e20616c7265616479206d696e74656400000000600082015250565b7f4552433732313a207472616e7366657220746f20746865207a65726f2061646460008201527f7265737300000000000000000000000000000000000000000000000000000000602082015250565b7f4552433732313a20617070726f766520746f2063616c6c657200000000000000600082015250565b7f4552433732313a2061646472657373207a65726f206973206e6f74206120766160008201527f6c6964206f776e65720000000000000000000000000000000000000000000000602082015250565b7f45524337323155524953746f726167653a2055524920736574206f66206e6f6e60008201527f6578697374656e7420746f6b656e000000000000000000000000000000000000602082015250565b7f4552433732313a20617070726f76652063616c6c6572206973206e6f7420746f60008201527f6b656e206f776e6572206e6f7220617070726f76656420666f7220616c6c0000602082015250565b7f4552433732313a206d696e7420746f20746865207a65726f2061646472657373600082015250565b7f4552433732313a20696e76616c696420746f6b656e2049440000000000000000600082015250565b7f4552433732313a20617070726f76616c20746f2063757272656e74206f776e6560008201527f7200000000000000000000000000000000000000000000000000000000000000602082015250565b7f4552433732313a2063616c6c6572206973206e6f7420746f6b656e206f776e6560008201527f72206e6f7220617070726f766564000000000000000000000000000000000000602082015250565b612c9f81612708565b8114612caa57600080fd5b50565b612cb68161272c565b8114612cc157600080fd5b50565b612ccd81612738565b8114612cd857600080fd5b50565b612ce481612784565b8114612cef57600080fd5b5056fea26469706673582212208589d358cec25855a6164c91ee49a5627390f3b6f587f31a6fa81756eb81a3ba64736f6c63430008040033",
  "linkReferences": {},
  "deployedLinkReferences": {}
}