{
  "_format": "hh-sol-artifact-1",
  "contractName": "Exactly",
  "sourceName": "contracts/Exactly.sol",
  "abi": [
    {
      "inputs": [],
      "stateMutability": "nonpayable",
      "type": "constructor"
    },
    {
      "inputs": [],
      "name": "Exactly__CanNotTipToYouself",
      "type": "error"
    },
    {
      "inputs": [],
      "name": "Exactly__MustOwnNftToPost",
      "type": "error"
    },
    {
      "inputs": [],
      "name": "Exactly__NotOwner",
      "type": "error"
    },
    {
      "inputs": [],
      "name": "Exactly__PostCanNotBeEmpty",
      "type": "error"
    },
    {
      "inputs": [],
      "name": "Exactly__PostWithThatIdDoesntExist",
      "type": "error"
    },
    {
      "inputs": [],
      "name": "Exactly__TipAmountIsNotEnough",
      "type": "error"
    },
    {
      "anonymous": false,
      "inputs": [
        {
          "indexed": true,
          "internalType": "address",
          "name": "owner",
          "type": "address"
        },
        {
          "indexed": true,
          "internalType": "address",
          "name": "approved",
          "type": "address"
        },
        {
          "indexed": true,
          "internalType": "uint256",
          "name": "tokenId",
          "type": "uint256"
        }
      ],
      "name": "Approval",
      "type": "event"
    },
    {
      "anonymous": false,
      "inputs": [
        {
          "indexed": true,
          "internalType": "address",
          "name": "owner",
          "type": "address"
        },
        {
          "indexed": true,
          "internalType": "address",
          "name": "operator",
          "type": "address"
        },
        {
          "indexed": false,
          "internalType": "bool",
          "name": "approved",
          "type": "bool"
        }
      ],
      "name": "ApprovalForAll",
      "type": "event"
    },
    {
      "anonymous": false,
      "inputs": [
        {
          "indexed": false,
          "internalType": "uint256",
          "name": "id",
          "type": "uint256"
        },
        {
          "indexed": false,
          "internalType": "string",
          "name": "hashContent",
          "type": "string"
        },
        {
          "indexed": false,
          "internalType": "uint256",
          "name": "tipAmount",
          "type": "uint256"
        },
        {
          "indexed": false,
          "internalType": "address payable",
          "name": "author",
          "type": "address"
        }
      ],
      "name": "Exactly__PostCreated",
      "type": "event"
    },
    {
      "anonymous": false,
      "inputs": [
        {
          "indexed": false,
          "internalType": "uint256",
          "name": "id",
          "type": "uint256"
        },
        {
          "indexed": false,
          "internalType": "string",
          "name": "hashContent",
          "type": "string"
        },
        {
          "indexed": false,
          "internalType": "uint256",
          "name": "tipAmount",
          "type": "uint256"
        },
        {
          "indexed": false,
          "internalType": "address payable",
          "name": "author",
          "type": "address"
        }
      ],
      "name": "Exactly__PostTipped",
      "type": "event"
    },
    {
      "anonymous": false,
      "inputs": [
        {
          "indexed": true,
          "internalType": "address",
          "name": "from",
          "type": "address"
        },
        {
          "indexed": true,
          "internalType": "address",
          "name": "to",
          "type": "address"
        },
        {
          "indexed": true,
          "internalType": "uint256",
          "name": "tokenId",
          "type": "uint256"
        }
      ],
      "name": "Transfer",
      "type": "event"
    },
    {
      "inputs": [
        {
          "internalType": "address",
          "name": "to",
          "type": "address"
        },
        {
          "internalType": "uint256",
          "name": "tokenId",
          "type": "uint256"
        }
      ],
      "name": "approve",
      "outputs": [],
      "stateMutability": "nonpayable",
      "type": "function"
    },
    {
      "inputs": [
        {
          "internalType": "address",
          "name": "owner",
          "type": "address"
        }
      ],
      "name": "balanceOf",
      "outputs": [
        {
          "internalType": "uint256",
          "name": "",
          "type": "uint256"
        }
      ],
      "stateMutability": "view",
      "type": "function"
    },
    {
      "inputs": [],
      "name": "getAllPosts",
      "outputs": [
        {
          "components": [
            {
              "internalType": "uint256",
              "name": "id",
              "type": "uint256"
            },
            {
              "internalType": "string",
              "name": "hashContent",
              "type": "string"
            },
            {
              "internalType": "uint256",
              "name": "tipAmount",
              "type": "uint256"
            },
            {
              "internalType": "address payable",
              "name": "author",
              "type": "address"
            }
          ],
          "internalType": "struct Exactly.Post[]",
          "name": "_posts",
          "type": "tuple[]"
        }
      ],
      "stateMutability": "view",
      "type": "function"
    },
    {
      "inputs": [
        {
          "internalType": "uint256",
          "name": "tokenId",
          "type": "uint256"
        }
      ],
      "name": "getApproved",
      "outputs": [
        {
          "internalType": "address",
          "name": "",
          "type": "address"
        }
      ],
      "stateMutability": "view",
      "type": "function"
    },
    {
      "inputs": [],
      "name": "getMyNfts",
      "outputs": [
        {
          "internalType": "uint256[]",
          "name": "_tokenIds",
          "type": "uint256[]"
        }
      ],
      "stateMutability": "view",
      "type": "function"
    },
    {
      "inputs": [
        {
          "internalType": "uint256",
          "name": "postCount",
          "type": "uint256"
        }
      ],
      "name": "getPost",
      "outputs": [
        {
          "components": [
            {
              "internalType": "uint256",
              "name": "id",
              "type": "uint256"
            },
            {
              "internalType": "string",
              "name": "hashContent",
              "type": "string"
            },
            {
              "internalType": "uint256",
              "name": "tipAmount",
              "type": "uint256"
            },
            {
              "internalType": "address payable",
              "name": "author",
              "type": "address"
            }
          ],
          "internalType": "struct Exactly.Post",
          "name": "",
          "type": "tuple"
        }
      ],
      "stateMutability": "view",
      "type": "function"
    },
    {
      "inputs": [],
      "name": "getPostCount",
      "outputs": [
        {
          "internalType": "uint256",
          "name": "",
          "type": "uint256"
        }
      ],
      "stateMutability": "view",
      "type": "function"
    },
    {
      "inputs": [],
      "name": "getTokenCount",
      "outputs": [
        {
          "internalType": "uint256",
          "name": "",
          "type": "uint256"
        }
      ],
      "stateMutability": "view",
      "type": "function"
    },
    {
      "inputs": [
        {
          "internalType": "address",
          "name": "profile",
          "type": "address"
        }
      ],
      "name": "getTokenIdForProfile",
      "outputs": [
        {
          "internalType": "uint256",
          "name": "",
          "type": "uint256"
        }
      ],
      "stateMutability": "view",
      "type": "function"
    },
    {
      "inputs": [
        {
          "internalType": "address",
          "name": "owner",
          "type": "address"
        },
        {
          "internalType": "address",
          "name": "operator",
          "type": "address"
        }
      ],
      "name": "isApprovedForAll",
      "outputs": [
        {
          "internalType": "bool",
          "name": "",
          "type": "bool"
        }
      ],
      "stateMutability": "view",
      "type": "function"
    },
    {
      "inputs": [
        {
          "internalType": "string",
          "name": "_tokenURI",
          "type": "string"
        }
      ],
      "name": "mint",
      "outputs": [
        {
          "internalType": "uint256",
          "name": "",
          "type": "uint256"
        }
      ],
      "stateMutability": "nonpayable",
      "type": "function"
    },
    {
      "inputs": [],
      "name": "name",
      "outputs": [
        {
          "internalType": "string",
          "name": "",
          "type": "string"
        }
      ],
      "stateMutability": "view",
      "type": "function"
    },
    {
      "inputs": [
        {
          "internalType": "uint256",
          "name": "tokenId",
          "type": "uint256"
        }
      ],
      "name": "ownerOf",
      "outputs": [
        {
          "internalType": "address",
          "name": "",
          "type": "address"
        }
      ],
      "stateMutability": "view",
      "type": "function"
    },
    {
      "inputs": [
        {
          "internalType": "address",
          "name": "from",
          "type": "address"
        },
        {
          "internalType": "address",
          "name": "to",
          "type": "address"
        },
        {
          "internalType": "uint256",
          "name": "tokenId",
          "type": "uint256"
        }
      ],
      "name": "safeTransferFrom",
      "outputs": [],
      "stateMutability": "nonpayable",
      "type": "function"
    },
    {
      "inputs": [
        {
          "internalType": "address",
          "name": "from",
          "type": "address"
        },
        {
          "internalType": "address",
          "name": "to",
          "type": "address"
        },
        {
          "internalType": "uint256",
          "name": "tokenId",
          "type": "uint256"
        },
        {
          "internalType": "bytes",
          "name": "data",
          "type": "bytes"
        }
      ],
      "name": "safeTransferFrom",
      "outputs": [],
      "stateMutability": "nonpayable",
      "type": "function"
    },
    {
      "inputs": [
        {
          "internalType": "address",
          "name": "operator",
          "type": "address"
        },
        {
          "internalType": "bool",
          "name": "approved",
          "type": "bool"
        }
      ],
      "name": "setApprovalForAll",
      "outputs": [],
      "stateMutability": "nonpayable",
      "type": "function"
    },
    {
      "inputs": [
        {
          "internalType": "uint256",
          "name": "_tokenId",
          "type": "uint256"
        }
      ],
      "name": "setProfile",
      "outputs": [],
      "stateMutability": "nonpayable",
      "type": "function"
    },
    {
      "inputs": [
        {
          "internalType": "bytes4",
          "name": "interfaceId",
          "type": "bytes4"
        }
      ],
      "name": "supportsInterface",
      "outputs": [
        {
          "internalType": "bool",
          "name": "",
          "type": "bool"
        }
      ],
      "stateMutability": "view",
      "type": "function"
    },
    {
      "inputs": [],
      "name": "symbol",
      "outputs": [
        {
          "internalType": "string",
          "name": "",
          "type": "string"
        }
      ],
      "stateMutability": "view",
      "type": "function"
    },
    {
      "inputs": [
        {
          "internalType": "uint256",
          "name": "_postId",
          "type": "uint256"
        }
      ],
      "name": "tipPost",
      "outputs": [],
      "stateMutability": "payable",
      "type": "function"
    },
    {
      "inputs": [
        {
          "internalType": "uint256",
          "name": "tokenId",
          "type": "uint256"
        }
      ],
      "name": "tokenURI",
      "outputs": [
        {
          "internalType": "string",
          "name": "",
          "type": "string"
        }
      ],
      "stateMutability": "view",
      "type": "function"
    },
    {
      "inputs": [
        {
          "internalType": "address",
          "name": "from",
          "type": "address"
        },
        {
          "internalType": "address",
          "name": "to",
          "type": "address"
        },
        {
          "internalType": "uint256",
          "name": "tokenId",
          "type": "uint256"
        }
      ],
      "name": "transferFrom",
      "outputs": [],
      "stateMutability": "nonpayable",
      "type": "function"
    },
    {
      "inputs": [
        {
          "internalType": "string",
          "name": "_postHash",
          "type": "string"
        }
      ],
      "name": "uploadPost",
      "outputs": [],
      "stateMutability": "nonpayable",
      "type": "function"
    }
  ],
  "bytecode": "0x60806040523480156200001157600080fd5b506040518060400160405280600781526020017f45786163746c79000000000000000000000000000000000000000000000000008152506040518060400160405280600381526020017f4558430000000000000000000000000000000000000000000000000000000000815250816000908051906020019062000096929190620000b8565b508060019080519060200190620000af929190620000b8565b505050620001cd565b828054620000c69062000168565b90600052602060002090601f016020900481019282620000ea576000855562000136565b82601f106200010557805160ff191683800117855562000136565b8280016001018555821562000136579182015b828111156200013557825182559160200191906001019062000118565b5b50905062000145919062000149565b5090565b5b80821115620001645760008160009055506001016200014a565b5090565b600060028204905060018216806200018157607f821691505b602082108114156200019857620001976200019e565b5b50919050565b7f4e487b7100000000000000000000000000000000000000000000000000000000600052602260045260246000fd5b6139e880620001dd6000396000f3fe6080604052600436106101405760003560e01c806370a08231116100b6578063b88d4fde1161006f578063b88d4fde14610473578063bcc954071461049c578063bdd05adb146104c7578063c87b56dd146104f0578063d85d3d271461052d578063e985e9c51461056a57610140565b806370a082311461037257806374d3c1f8146103af57806378a89567146103cb57806385d3cb37146103f657806395d89b411461041f578063a22cb4651461044a57610140565b806323b872dd1161010857806323b872dd1461023e578063305611001461026757806340731c241461029257806342842e0e146102cf5780636352211e146102f85780636938e5fa1461033557610140565b806301ffc9a714610145578063047b07bf1461018257806306fdde03146101ad578063081812fc146101d8578063095ea7b314610215575b600080fd5b34801561015157600080fd5b5061016c600480360381019061016791906128e3565b6105a7565b6040516101799190612f1c565b60405180910390f35b34801561018e57600080fd5b50610197610689565b6040516101a49190612efa565b60405180910390f35b3480156101b957600080fd5b506101c26107bf565b6040516101cf9190612f37565b60405180910390f35b3480156101e457600080fd5b506101ff60048036038101906101fa9190612976565b610851565b60405161020c9190612e71565b60405180910390f35b34801561022157600080fd5b5061023c600480360381019061023791906128a7565b610897565b005b34801561024a57600080fd5b50610265600480360381019061026091906127a1565b6109af565b005b34801561027357600080fd5b5061027c610a0f565b6040516102899190612ed8565b60405180910390f35b34801561029e57600080fd5b506102b960048036038101906102b49190612976565b610c1d565b6040516102c691906130d9565b60405180910390f35b3480156102db57600080fd5b506102f660048036038101906102f191906127a1565b610d46565b005b34801561030457600080fd5b5061031f600480360381019061031a9190612976565b610d66565b60405161032c9190612e71565b60405180910390f35b34801561034157600080fd5b5061035c6004803603810190610357919061273c565b610e18565b60405161036991906130fb565b60405180910390f35b34801561037e57600080fd5b506103996004803603810190610394919061273c565b610e61565b6040516103a691906130fb565b60405180910390f35b6103c960048036038101906103c49190612976565b610f19565b005b3480156103d757600080fd5b506103e0611262565b6040516103ed91906130fb565b60405180910390f35b34801561040257600080fd5b5061041d60048036038101906104189190612976565b61126c565b005b34801561042b57600080fd5b50610434611320565b6040516104419190612f37565b60405180910390f35b34801561045657600080fd5b50610471600480360381019061046c919061286b565b6113b2565b005b34801561047f57600080fd5b5061049a600480360381019061049591906127f0565b6113c8565b005b3480156104a857600080fd5b506104b161142a565b6040516104be91906130fb565b60405180910390f35b3480156104d357600080fd5b506104ee60048036038101906104e99190612935565b611434565b005b3480156104fc57600080fd5b5061051760048036038101906105129190612976565b6115d6565b6040516105249190612f37565b60405180910390f35b34801561053957600080fd5b50610554600480360381019061054f9190612935565b6116e9565b60405161056191906130fb565b60405180910390f35b34801561057657600080fd5b50610591600480360381019061058c9190612765565b611730565b60405161059e9190612f1c565b60405180910390f35b60007f80ac58cd000000000000000000000000000000000000000000000000000000007bffffffffffffffffffffffffffffffffffffffffffffffffffffffff1916827bffffffffffffffffffffffffffffffffffffffffffffffffffffffff1916148061067257507f5b5e139f000000000000000000000000000000000000000000000000000000007bffffffffffffffffffffffffffffffffffffffffffffffffffffffff1916827bffffffffffffffffffffffffffffffffffffffffffffffffffffffff1916145b806106825750610681826117c4565b5b9050919050565b606061069433610e61565b67ffffffffffffffff8111156106d3577f4e487b7100000000000000000000000000000000000000000000000000000000600052604160045260246000fd5b6040519080825280602002602001820160405280156107015781602001602082028036833780820191505090505b509050600080600190505b6007548110156107ba573373ffffffffffffffffffffffffffffffffffffffff1661073682610d66565b73ffffffffffffffffffffffffffffffffffffffff1614156107a7578083838151811061078c577f4e487b7100000000000000000000000000000000000000000000000000000000600052603260045260246000fd5b60200260200101818152505081806107a3906134f3565b9250505b80806107b2906134f3565b91505061070c565b505090565b6060600080546107ce90613490565b80601f01602080910402602001604051908101604052809291908181526020018280546107fa90613490565b80156108475780601f1061081c57610100808354040283529160200191610847565b820191906000526020600020905b81548152906001019060200180831161082a57829003601f168201915b5050505050905090565b600061085c8261182e565b6004600083815260200190815260200160002060009054906101000a900473ffffffffffffffffffffffffffffffffffffffff169050919050565b60006108a282610d66565b90508073ffffffffffffffffffffffffffffffffffffffff168373ffffffffffffffffffffffffffffffffffffffff161415610913576040517f08c379a000000000000000000000000000000000000000000000000000000000815260040161090a90613099565b60405180910390fd5b8073ffffffffffffffffffffffffffffffffffffffff16610932611879565b73ffffffffffffffffffffffffffffffffffffffff16148061096157506109608161095b611879565b611730565b5b6109a0576040517f08c379a000000000000000000000000000000000000000000000000000000000815260040161099790613039565b60405180910390fd5b6109aa8383611881565b505050565b6109c06109ba611879565b8261193a565b6109ff576040517f08c379a00000000000000000000000000000000000000000000000000000000081526004016109f6906130b9565b60405180910390fd5b610a0a8383836119cf565b505050565b606060085467ffffffffffffffff811115610a53577f4e487b7100000000000000000000000000000000000000000000000000000000600052604160045260246000fd5b604051908082528060200260200182016040528015610a8c57816020015b610a79612522565b815260200190600190039081610a715790505b50905060005b600854811015610c195760096000600183610aad91906132fb565b815260200190815260200160002060405180608001604052908160008201548152602001600182018054610ae090613490565b80601f0160208091040260200160405190810160405280929190818152602001828054610b0c90613490565b8015610b595780601f10610b2e57610100808354040283529160200191610b59565b820191906000526020600020905b815481529060010190602001808311610b3c57829003601f168201915b50505050508152602001600282015481526020016003820160009054906101000a900473ffffffffffffffffffffffffffffffffffffffff1673ffffffffffffffffffffffffffffffffffffffff1673ffffffffffffffffffffffffffffffffffffffff1681525050828281518110610bfb577f4e487b7100000000000000000000000000000000000000000000000000000000600052603260045260246000fd5b60200260200101819052508080610c11906134f3565b915050610a92565b5090565b610c25612522565b6009600083815260200190815260200160002060405180608001604052908160008201548152602001600182018054610c5d90613490565b80601f0160208091040260200160405190810160405280929190818152602001828054610c8990613490565b8015610cd65780601f10610cab57610100808354040283529160200191610cd6565b820191906000526020600020905b815481529060010190602001808311610cb957829003601f168201915b50505050508152602001600282015481526020016003820160009054906101000a900473ffffffffffffffffffffffffffffffffffffffff1673ffffffffffffffffffffffffffffffffffffffff1673ffffffffffffffffffffffffffffffffffffffff16815250509050919050565b610d61838383604051806020016040528060008152506113c8565b505050565b6000806002600084815260200190815260200160002060009054906101000a900473ffffffffffffffffffffffffffffffffffffffff169050600073ffffffffffffffffffffffffffffffffffffffff168173ffffffffffffffffffffffffffffffffffffffff161415610e0f576040517f08c379a0000000000000000000000000000000000000000000000000000000008152600401610e0690613079565b60405180910390fd5b80915050919050565b6000600a60008373ffffffffffffffffffffffffffffffffffffffff1673ffffffffffffffffffffffffffffffffffffffff168152602001908152602001600020549050919050565b60008073ffffffffffffffffffffffffffffffffffffffff168273ffffffffffffffffffffffffffffffffffffffff161415610ed2576040517f08c379a0000000000000000000000000000000000000000000000000000000008152600401610ec990612ff9565b60405180910390fd5b600360008373ffffffffffffffffffffffffffffffffffffffff1673ffffffffffffffffffffffffffffffffffffffff168152602001908152602001600020549050919050565b6000811080610f29575060085481115b15610f60576040517f6d69e9ca00000000000000000000000000000000000000000000000000000000815260040160405180910390fd5b60003411610f9a576040517f9d88b4b800000000000000000000000000000000000000000000000000000000815260040160405180910390fd5b60006009600083815260200190815260200160002060405180608001604052908160008201548152602001600182018054610fd490613490565b80601f016020809104026020016040519081016040528092919081815260200182805461100090613490565b801561104d5780601f106110225761010080835404028352916020019161104d565b820191906000526020600020905b81548152906001019060200180831161103057829003601f168201915b50505050508152602001600282015481526020016003820160009054906101000a900473ffffffffffffffffffffffffffffffffffffffff1673ffffffffffffffffffffffffffffffffffffffff1673ffffffffffffffffffffffffffffffffffffffff16815250509050806060015173ffffffffffffffffffffffffffffffffffffffff163373ffffffffffffffffffffffffffffffffffffffff161415611122576040517fc6cc468900000000000000000000000000000000000000000000000000000000815260040160405180910390fd5b34816040015161113291906132fb565b8160400181815250508060096000848152602001908152602001600020600082015181600001556020820151816001019080519060200190611175929190612560565b506040820151816002015560608201518160030160006101000a81548173ffffffffffffffffffffffffffffffffffffffff021916908373ffffffffffffffffffffffffffffffffffffffff160217905550905050806060015173ffffffffffffffffffffffffffffffffffffffff166108fc349081150290604051600060405180830381858888f19350505050158015611214573d6000803e3d6000fd5b507fdd87ba58389c04b62ce26b73411af232bbb7ddf11368c03b9238f18a392348ec828260200151836040015184606001516040516112569493929190613162565b60405180910390a15050565b6000600754905090565b61127581610d66565b73ffffffffffffffffffffffffffffffffffffffff163373ffffffffffffffffffffffffffffffffffffffff16146112d9576040517f99c6f40300000000000000000000000000000000000000000000000000000000815260040160405180910390fd5b80600a60003373ffffffffffffffffffffffffffffffffffffffff1673ffffffffffffffffffffffffffffffffffffffff1681526020019081526020016000208190555050565b60606001805461132f90613490565b80601f016020809104026020016040519081016040528092919081815260200182805461135b90613490565b80156113a85780601f1061137d576101008083540402835291602001916113a8565b820191906000526020600020905b81548152906001019060200180831161138b57829003601f168201915b5050505050905090565b6113c46113bd611879565b8383611c36565b5050565b6113d96113d3611879565b8361193a565b611418576040517f08c379a000000000000000000000000000000000000000000000000000000000815260040161140f906130b9565b60405180910390fd5b61142484848484611da3565b50505050565b6000600754905090565b600061143f33610e61565b11611476576040517f9d2ca2f200000000000000000000000000000000000000000000000000000000815260040160405180910390fd5b60008151116114b1576040517f97a1d26100000000000000000000000000000000000000000000000000000000815260040160405180910390fd5b600860008154809291906114c4906134f3565b919050555060405180608001604052806008548152602001828152602001600081526020013373ffffffffffffffffffffffffffffffffffffffff1681525060096000600854815260200190815260200160002060008201518160000155602082015181600101908051906020019061153e929190612560565b506040820151816002015560608201518160030160006101000a81548173ffffffffffffffffffffffffffffffffffffffff021916908373ffffffffffffffffffffffffffffffffffffffff1602179055509050507f03d0e272ff804e9024b222f7a73f0c1b2deba6c7be8917773bdf62fcb6c3850c600854826000336040516115cb9493929190613116565b60405180910390a150565b60606115e18261182e565b600060066000848152602001908152602001600020805461160190613490565b80601f016020809104026020016040519081016040528092919081815260200182805461162d90613490565b801561167a5780601f1061164f5761010080835404028352916020019161167a565b820191906000526020600020905b81548152906001019060200180831161165d57829003601f168201915b50505050509050600061168b611dff565b90506000815114156116a15781925050506116e4565b6000825111156116d65780826040516020016116be929190612e4d565b604051602081830303815290604052925050506116e4565b6116df84611e16565b925050505b919050565b6000600760008154809291906116fe906134f3565b919050555061170f33600754611e7e565b61171b60075483611e9c565b61172660075461126c565b6007549050919050565b6000600560008473ffffffffffffffffffffffffffffffffffffffff1673ffffffffffffffffffffffffffffffffffffffff16815260200190815260200160002060008373ffffffffffffffffffffffffffffffffffffffff1673ffffffffffffffffffffffffffffffffffffffff16815260200190815260200160002060009054906101000a900460ff16905092915050565b60007f01ffc9a7000000000000000000000000000000000000000000000000000000007bffffffffffffffffffffffffffffffffffffffffffffffffffffffff1916827bffffffffffffffffffffffffffffffffffffffffffffffffffffffff1916149050919050565b61183781611f10565b611876576040517f08c379a000000000000000000000000000000000000000000000000000000000815260040161186d90613079565b60405180910390fd5b50565b600033905090565b816004600083815260200190815260200160002060006101000a81548173ffffffffffffffffffffffffffffffffffffffff021916908373ffffffffffffffffffffffffffffffffffffffff160217905550808273ffffffffffffffffffffffffffffffffffffffff166118f483610d66565b73ffffffffffffffffffffffffffffffffffffffff167f8c5be1e5ebec7d5bd14f71427d1e84f3dd0314c0f7b2291e5b200ac8c7c3b92560405160405180910390a45050565b60008061194683610d66565b90508073ffffffffffffffffffffffffffffffffffffffff168473ffffffffffffffffffffffffffffffffffffffff16148061198857506119878185611730565b5b806119c657508373ffffffffffffffffffffffffffffffffffffffff166119ae84610851565b73ffffffffffffffffffffffffffffffffffffffff16145b91505092915050565b8273ffffffffffffffffffffffffffffffffffffffff166119ef82610d66565b73ffffffffffffffffffffffffffffffffffffffff1614611a45576040517f08c379a0000000000000000000000000000000000000000000000000000000008152600401611a3c90612f79565b60405180910390fd5b600073ffffffffffffffffffffffffffffffffffffffff168273ffffffffffffffffffffffffffffffffffffffff161415611ab5576040517f08c379a0000000000000000000000000000000000000000000000000000000008152600401611aac90612fb9565b60405180910390fd5b611ac0838383611f7c565b611acb600082611881565b6001600360008573ffffffffffffffffffffffffffffffffffffffff1673ffffffffffffffffffffffffffffffffffffffff1681526020019081526020016000206000828254611b1b9190613382565b925050819055506001600360008473ffffffffffffffffffffffffffffffffffffffff1673ffffffffffffffffffffffffffffffffffffffff1681526020019081526020016000206000828254611b7291906132fb565b92505081905550816002600083815260200190815260200160002060006101000a81548173ffffffffffffffffffffffffffffffffffffffff021916908373ffffffffffffffffffffffffffffffffffffffff160217905550808273ffffffffffffffffffffffffffffffffffffffff168473ffffffffffffffffffffffffffffffffffffffff167fddf252ad1be2c89b69c2b068fc378daa952ba7f163c4a11628f55a4df523b3ef60405160405180910390a4611c31838383611f81565b505050565b8173ffffffffffffffffffffffffffffffffffffffff168373ffffffffffffffffffffffffffffffffffffffff161415611ca5576040517f08c379a0000000000000000000000000000000000000000000000000000000008152600401611c9c90612fd9565b60405180910390fd5b80600560008573ffffffffffffffffffffffffffffffffffffffff1673ffffffffffffffffffffffffffffffffffffffff16815260200190815260200160002060008473ffffffffffffffffffffffffffffffffffffffff1673ffffffffffffffffffffffffffffffffffffffff16815260200190815260200160002060006101000a81548160ff0219169083151502179055508173ffffffffffffffffffffffffffffffffffffffff168373ffffffffffffffffffffffffffffffffffffffff167f17307eab39ab6107e8899845ad3d59bd9653f200f220920489ca2b5937696c3183604051611d969190612f1c565b60405180910390a3505050565b611dae8484846119cf565b611dba84848484611f86565b611df9576040517f08c379a0000000000000000000000000000000000000000000000000000000008152600401611df090612f59565b60405180910390fd5b50505050565b606060405180602001604052806000815250905090565b6060611e218261182e565b6000611e2b611dff565b90506000815111611e4b5760405180602001604052806000815250611e76565b80611e558461211d565b604051602001611e66929190612e4d565b6040516020818303038152906040525b915050919050565b611e988282604051806020016040528060008152506122ca565b5050565b611ea582611f10565b611ee4576040517f08c379a0000000000000000000000000000000000000000000000000000000008152600401611edb90613019565b60405180910390fd5b80600660008481526020019081526020016000209080519060200190611f0b929190612560565b505050565b60008073ffffffffffffffffffffffffffffffffffffffff166002600084815260200190815260200160002060009054906101000a900473ffffffffffffffffffffffffffffffffffffffff1673ffffffffffffffffffffffffffffffffffffffff1614159050919050565b505050565b505050565b6000611fa78473ffffffffffffffffffffffffffffffffffffffff16612325565b15612110578373ffffffffffffffffffffffffffffffffffffffff1663150b7a02611fd0611879565b8786866040518563ffffffff1660e01b8152600401611ff29493929190612e8c565b602060405180830381600087803b15801561200c57600080fd5b505af192505050801561203d57506040513d601f19601f8201168201806040525081019061203a919061290c565b60015b6120c0573d806000811461206d576040519150601f19603f3d011682016040523d82523d6000602084013e612072565b606091505b506000815114156120b8576040517f08c379a00000000000000000000000000000000000000000000000000000000081526004016120af90612f59565b60405180910390fd5b805181602001fd5b63150b7a0260e01b7bffffffffffffffffffffffffffffffffffffffffffffffffffffffff1916817bffffffffffffffffffffffffffffffffffffffffffffffffffffffff191614915050612115565b600190505b949350505050565b60606000821415612165576040518060400160405280600181526020017f300000000000000000000000000000000000000000000000000000000000000081525090506122c5565b600082905060005b60008214612197578080612180906134f3565b915050600a826121909190613351565b915061216d565b60008167ffffffffffffffff8111156121d9577f4e487b7100000000000000000000000000000000000000000000000000000000600052604160045260246000fd5b6040519080825280601f01601f19166020018201604052801561220b5781602001600182028036833780820191505090505b5090505b600085146122be576001826122249190613382565b9150600a85612233919061353c565b603061223f91906132fb565b60f81b81838151811061227b577f4e487b7100000000000000000000000000000000000000000000000000000000600052603260045260246000fd5b60200101907effffffffffffffffffffffffffffffffffffffffffffffffffffffffffffff1916908160001a905350600a856122b79190613351565b945061220f565b8093505050505b919050565b6122d48383612348565b6122e16000848484611f86565b612320576040517f08c379a000000000000000000000000000000000000000000000000000000000815260040161231790612f59565b60405180910390fd5b505050565b6000808273ffffffffffffffffffffffffffffffffffffffff163b119050919050565b600073ffffffffffffffffffffffffffffffffffffffff168273ffffffffffffffffffffffffffffffffffffffff1614156123b8576040517f08c379a00000000000000000000000000000000000000000000000000000000081526004016123af90613059565b60405180910390fd5b6123c181611f10565b15612401576040517f08c379a00000000000000000000000000000000000000000000000000000000081526004016123f890612f99565b60405180910390fd5b61240d60008383611f7c565b6001600360008473ffffffffffffffffffffffffffffffffffffffff1673ffffffffffffffffffffffffffffffffffffffff168152602001908152602001600020600082825461245d91906132fb565b92505081905550816002600083815260200190815260200160002060006101000a81548173ffffffffffffffffffffffffffffffffffffffff021916908373ffffffffffffffffffffffffffffffffffffffff160217905550808273ffffffffffffffffffffffffffffffffffffffff16600073ffffffffffffffffffffffffffffffffffffffff167fddf252ad1be2c89b69c2b068fc378daa952ba7f163c4a11628f55a4df523b3ef60405160405180910390a461251e60008383611f81565b5050565b6040518060800160405280600081526020016060815260200160008152602001600073ffffffffffffffffffffffffffffffffffffffff1681525090565b82805461256c90613490565b90600052602060002090601f01602090048101928261258e57600085556125d5565b82601f106125a757805160ff19168380011785556125d5565b828001600101855582156125d5579182015b828111156125d45782518255916020019190600101906125b9565b5b5090506125e291906125e6565b5090565b5b808211156125ff5760008160009055506001016125e7565b5090565b6000612616612611846131d3565b6131ae565b90508281526020810184848401111561262e57600080fd5b61263984828561344e565b509392505050565b600061265461264f84613204565b6131ae565b90508281526020810184848401111561266c57600080fd5b61267784828561344e565b509392505050565b60008135905061268e81613956565b92915050565b6000813590506126a38161396d565b92915050565b6000813590506126b881613984565b92915050565b6000815190506126cd81613984565b92915050565b600082601f8301126126e457600080fd5b81356126f4848260208601612603565b91505092915050565b600082601f83011261270e57600080fd5b813561271e848260208601612641565b91505092915050565b6000813590506127368161399b565b92915050565b60006020828403121561274e57600080fd5b600061275c8482850161267f565b91505092915050565b6000806040838503121561277857600080fd5b60006127868582860161267f565b92505060206127978582860161267f565b9150509250929050565b6000806000606084860312156127b657600080fd5b60006127c48682870161267f565b93505060206127d58682870161267f565b92505060406127e686828701612727565b9150509250925092565b6000806000806080858703121561280657600080fd5b60006128148782880161267f565b94505060206128258782880161267f565b935050604061283687828801612727565b925050606085013567ffffffffffffffff81111561285357600080fd5b61285f878288016126d3565b91505092959194509250565b6000806040838503121561287e57600080fd5b600061288c8582860161267f565b925050602061289d85828601612694565b9150509250929050565b600080604083850312156128ba57600080fd5b60006128c88582860161267f565b92505060206128d985828601612727565b9150509250929050565b6000602082840312156128f557600080fd5b6000612903848285016126a9565b91505092915050565b60006020828403121561291e57600080fd5b600061292c848285016126be565b91505092915050565b60006020828403121561294757600080fd5b600082013567ffffffffffffffff81111561296157600080fd5b61296d848285016126fd565b91505092915050565b60006020828403121561298857600080fd5b600061299684828501612727565b91505092915050565b60006129ab8383612d69565b905092915050565b60006129bf8383612e2f565b60208301905092915050565b6129d4816133c8565b82525050565b6129e3816133c8565b82525050565b6129f2816133b6565b82525050565b6000612a0382613255565b612a0d818561329b565b935083602082028501612a1f85613235565b8060005b85811015612a5b5784840389528151612a3c858261299f565b9450612a4783613281565b925060208a01995050600181019050612a23565b50829750879550505050505092915050565b6000612a7882613260565b612a8281856132ac565b9350612a8d83613245565b8060005b83811015612abe578151612aa588826129b3565b9750612ab08361328e565b925050600181019050612a91565b5085935050505092915050565b612ad4816133da565b82525050565b6000612ae58261326b565b612aef81856132bd565b9350612aff81856020860161345d565b612b0881613629565b840191505092915050565b612b1c8161343c565b82525050565b6000612b2d82613276565b612b3781856132ce565b9350612b4781856020860161345d565b612b5081613629565b840191505092915050565b6000612b6682613276565b612b7081856132df565b9350612b8081856020860161345d565b612b8981613629565b840191505092915050565b6000612b9f82613276565b612ba981856132f0565b9350612bb981856020860161345d565b80840191505092915050565b6000612bd26032836132df565b9150612bdd8261363a565b604082019050919050565b6000612bf56025836132df565b9150612c0082613689565b604082019050919050565b6000612c18601c836132df565b9150612c23826136d8565b602082019050919050565b6000612c3b6024836132df565b9150612c4682613701565b604082019050919050565b6000612c5e6019836132df565b9150612c6982613750565b602082019050919050565b6000612c816029836132df565b9150612c8c82613779565b604082019050919050565b6000612ca4602e836132df565b9150612caf826137c8565b604082019050919050565b6000612cc7603e836132df565b9150612cd282613817565b604082019050919050565b6000612cea6020836132df565b9150612cf582613866565b602082019050919050565b6000612d0d6018836132df565b9150612d188261388f565b602082019050919050565b6000612d306021836132df565b9150612d3b826138b8565b604082019050919050565b6000612d53602e836132df565b9150612d5e82613907565b604082019050919050565b6000608083016000830151612d816000860182612e2f565b5060208301518482036020860152612d998282612b22565b9150506040830151612dae6040860182612e2f565b506060830151612dc160608601826129cb565b508091505092915050565b6000608083016000830151612de46000860182612e2f565b5060208301518482036020860152612dfc8282612b22565b9150506040830151612e116040860182612e2f565b506060830151612e2460608601826129cb565b508091505092915050565b612e3881613432565b82525050565b612e4781613432565b82525050565b6000612e598285612b94565b9150612e658284612b94565b91508190509392505050565b6000602082019050612e8660008301846129e9565b92915050565b6000608082019050612ea160008301876129e9565b612eae60208301866129e9565b612ebb6040830185612e3e565b8181036060830152612ecd8184612ada565b905095945050505050565b60006020820190508181036000830152612ef281846129f8565b905092915050565b60006020820190508181036000830152612f148184612a6d565b905092915050565b6000602082019050612f316000830184612acb565b92915050565b60006020820190508181036000830152612f518184612b5b565b905092915050565b60006020820190508181036000830152612f7281612bc5565b9050919050565b60006020820190508181036000830152612f9281612be8565b9050919050565b60006020820190508181036000830152612fb281612c0b565b9050919050565b60006020820190508181036000830152612fd281612c2e565b9050919050565b60006020820190508181036000830152612ff281612c51565b9050919050565b6000602082019050818103600083015261301281612c74565b9050919050565b6000602082019050818103600083015261303281612c97565b9050919050565b6000602082019050818103600083015261305281612cba565b9050919050565b6000602082019050818103600083015261307281612cdd565b9050919050565b6000602082019050818103600083015261309281612d00565b9050919050565b600060208201905081810360008301526130b281612d23565b9050919050565b600060208201905081810360008301526130d281612d46565b9050919050565b600060208201905081810360008301526130f38184612dcc565b905092915050565b60006020820190506131106000830184612e3e565b92915050565b600060808201905061312b6000830187612e3e565b818103602083015261313d8186612b5b565b905061314c6040830185612b13565b61315960608301846129da565b95945050505050565b60006080820190506131776000830187612e3e565b81810360208301526131898186612b5b565b90506131986040830185612e3e565b6131a560608301846129da565b95945050505050565b60006131b86131c9565b90506131c482826134c2565b919050565b6000604051905090565b600067ffffffffffffffff8211156131ee576131ed6135fa565b5b6131f782613629565b9050602081019050919050565b600067ffffffffffffffff82111561321f5761321e6135fa565b5b61322882613629565b9050602081019050919050565b6000819050602082019050919050565b6000819050602082019050919050565b600081519050919050565b600081519050919050565b600081519050919050565b600081519050919050565b6000602082019050919050565b6000602082019050919050565b600082825260208201905092915050565b600082825260208201905092915050565b600082825260208201905092915050565b600082825260208201905092915050565b600082825260208201905092915050565b600081905092915050565b600061330682613432565b915061331183613432565b9250827fffffffffffffffffffffffffffffffffffffffffffffffffffffffffffffffff038211156133465761334561356d565b5b828201905092915050565b600061335c82613432565b915061336783613432565b9250826133775761337661359c565b5b828204905092915050565b600061338d82613432565b915061339883613432565b9250828210156133ab576133aa61356d565b5b828203905092915050565b60006133c182613412565b9050919050565b60006133d382613412565b9050919050565b60008115159050919050565b60007fffffffff0000000000000000000000000000000000000000000000000000000082169050919050565b600073ffffffffffffffffffffffffffffffffffffffff82169050919050565b6000819050919050565b600061344782613432565b9050919050565b82818337600083830152505050565b60005b8381101561347b578082015181840152602081019050613460565b8381111561348a576000848401525b50505050565b600060028204905060018216806134a857607f821691505b602082108114156134bc576134bb6135cb565b5b50919050565b6134cb82613629565b810181811067ffffffffffffffff821117156134ea576134e96135fa565b5b80604052505050565b60006134fe82613432565b91507fffffffffffffffffffffffffffffffffffffffffffffffffffffffffffffffff8214156135315761353061356d565b5b600182019050919050565b600061354782613432565b915061355283613432565b9250826135625761356161359c565b5b828206905092915050565b7f4e487b7100000000000000000000000000000000000000000000000000000000600052601160045260246000fd5b7f4e487b7100000000000000000000000000000000000000000000000000000000600052601260045260246000fd5b7f4e487b7100000000000000000000000000000000000000000000000000000000600052602260045260246000fd5b7f4e487b7100000000000000000000000000000000000000000000000000000000600052604160045260246000fd5b6000601f19601f8301169050919050565b7f4552433732313a207472616e7366657220746f206e6f6e20455243373231526560008201527f63656976657220696d706c656d656e7465720000000000000000000000000000602082015250565b7f4552433732313a207472616e736665722066726f6d20696e636f72726563742060008201527f6f776e6572000000000000000000000000000000000000000000000000000000602082015250565b7f4552433732313a20746f6b656e20616c7265616479206d696e74656400000000600082015250565b7f4552433732313a207472616e7366657220746f20746865207a65726f2061646460008201527f7265737300000000000000000000000000000000000000000000000000000000602082015250565b7f4552433732313a20617070726f766520746f2063616c6c657200000000000000600082015250565b7f4552433732313a2061646472657373207a65726f206973206e6f74206120766160008201527f6c6964206f776e65720000000000000000000000000000000000000000000000602082015250565b7f45524337323155524953746f726167653a2055524920736574206f66206e6f6e60008201527f6578697374656e7420746f6b656e000000000000000000000000000000000000602082015250565b7f4552433732313a20617070726f76652063616c6c6572206973206e6f7420746f60008201527f6b656e206f776e6572206e6f7220617070726f76656420666f7220616c6c0000602082015250565b7f4552433732313a206d696e7420746f20746865207a65726f2061646472657373600082015250565b7f4552433732313a20696e76616c696420746f6b656e2049440000000000000000600082015250565b7f4552433732313a20617070726f76616c20746f2063757272656e74206f776e6560008201527f7200000000000000000000000000000000000000000000000000000000000000602082015250565b7f4552433732313a2063616c6c6572206973206e6f7420746f6b656e206f776e6560008201527f72206e6f7220617070726f766564000000000000000000000000000000000000602082015250565b61395f816133b6565b811461396a57600080fd5b50565b613976816133da565b811461398157600080fd5b50565b61398d816133e6565b811461399857600080fd5b50565b6139a481613432565b81146139af57600080fd5b5056fea2646970667358221220e7868d5f9ff5c721f5ec51b6f00ea7ee331b5938a2bd9d083724d3cce60b31bc64736f6c63430008040033",
  "linkReferences": {},
  "deployedLinkReferences": {}
}