{
  "_format": "hh-sol-artifact-1",
  "contractName": "Exactly",
  "sourceName": "contracts/Exactly.sol",
  "abi": [
    {
      "inputs": [],
      "stateMutability": "nonpayable",
      "type": "constructor"
    },
    {
      "inputs": [],
      "name": "Exactly__CanNotTipToYouself",
      "type": "error"
    },
    {
      "inputs": [],
      "name": "Exactly__MustOwnNftToPost",
      "type": "error"
    },
    {
      "inputs": [],
      "name": "Exactly__NotOwner",
      "type": "error"
    },
    {
      "inputs": [],
      "name": "Exactly__PostCanNotBeEmpty",
      "type": "error"
    },
    {
      "inputs": [],
      "name": "Exactly__PostWithThatIdDoesntExist",
      "type": "error"
    },
    {
      "inputs": [],
      "name": "Exactly__TipAmountIsNotEnough",
      "type": "error"
    },
    {
      "anonymous": false,
      "inputs": [
        {
          "indexed": true,
          "internalType": "address",
          "name": "owner",
          "type": "address"
        },
        {
          "indexed": true,
          "internalType": "address",
          "name": "approved",
          "type": "address"
        },
        {
          "indexed": true,
          "internalType": "uint256",
          "name": "tokenId",
          "type": "uint256"
        }
      ],
      "name": "Approval",
      "type": "event"
    },
    {
      "anonymous": false,
      "inputs": [
        {
          "indexed": true,
          "internalType": "address",
          "name": "owner",
          "type": "address"
        },
        {
          "indexed": true,
          "internalType": "address",
          "name": "operator",
          "type": "address"
        },
        {
          "indexed": false,
          "internalType": "bool",
          "name": "approved",
          "type": "bool"
        }
      ],
      "name": "ApprovalForAll",
      "type": "event"
    },
    {
      "anonymous": false,
      "inputs": [
        {
          "indexed": false,
          "internalType": "uint256",
          "name": "id",
          "type": "uint256"
        },
        {
          "indexed": false,
          "internalType": "string",
          "name": "hashContent",
          "type": "string"
        },
        {
          "indexed": false,
          "internalType": "uint256",
          "name": "tipAmount",
          "type": "uint256"
        },
        {
          "indexed": false,
          "internalType": "address payable",
          "name": "author",
          "type": "address"
        }
      ],
      "name": "Exactly__PostCreated",
      "type": "event"
    },
    {
      "anonymous": false,
      "inputs": [
        {
          "indexed": false,
          "internalType": "uint256",
          "name": "id",
          "type": "uint256"
        },
        {
          "indexed": false,
          "internalType": "string",
          "name": "hashContent",
          "type": "string"
        },
        {
          "indexed": false,
          "internalType": "uint256",
          "name": "tipAmount",
          "type": "uint256"
        },
        {
          "indexed": false,
          "internalType": "address payable",
          "name": "author",
          "type": "address"
        }
      ],
      "name": "Exactly__PostTipped",
      "type": "event"
    },
    {
      "anonymous": false,
      "inputs": [
        {
          "indexed": true,
          "internalType": "address",
          "name": "from",
          "type": "address"
        },
        {
          "indexed": true,
          "internalType": "address",
          "name": "to",
          "type": "address"
        },
        {
          "indexed": true,
          "internalType": "uint256",
          "name": "tokenId",
          "type": "uint256"
        }
      ],
      "name": "Transfer",
      "type": "event"
    },
    {
      "inputs": [
        {
          "internalType": "address",
          "name": "to",
          "type": "address"
        },
        {
          "internalType": "uint256",
          "name": "tokenId",
          "type": "uint256"
        }
      ],
      "name": "approve",
      "outputs": [],
      "stateMutability": "nonpayable",
      "type": "function"
    },
    {
      "inputs": [
        {
          "internalType": "address",
          "name": "owner",
          "type": "address"
        }
      ],
      "name": "balanceOf",
      "outputs": [
        {
          "internalType": "uint256",
          "name": "",
          "type": "uint256"
        }
      ],
      "stateMutability": "view",
      "type": "function"
    },
    {
      "inputs": [],
      "name": "getAllPosts",
      "outputs": [
        {
          "components": [
            {
              "internalType": "uint256",
              "name": "id",
              "type": "uint256"
            },
            {
              "internalType": "string",
              "name": "hashContent",
              "type": "string"
            },
            {
              "internalType": "uint256",
              "name": "tipAmount",
              "type": "uint256"
            },
            {
              "internalType": "address payable",
              "name": "author",
              "type": "address"
            }
          ],
          "internalType": "struct Exactly.Post[]",
          "name": "_posts",
          "type": "tuple[]"
        }
      ],
      "stateMutability": "view",
      "type": "function"
    },
    {
      "inputs": [
        {
          "internalType": "uint256",
          "name": "tokenId",
          "type": "uint256"
        }
      ],
      "name": "getApproved",
      "outputs": [
        {
          "internalType": "address",
          "name": "",
          "type": "address"
        }
      ],
      "stateMutability": "view",
      "type": "function"
    },
    {
      "inputs": [],
      "name": "getMyNfts",
      "outputs": [
        {
          "internalType": "uint256[]",
          "name": "_tokenIds",
          "type": "uint256[]"
        }
      ],
      "stateMutability": "view",
      "type": "function"
    },
    {
      "inputs": [
        {
          "internalType": "uint256",
          "name": "postCount",
          "type": "uint256"
        }
      ],
      "name": "getPost",
      "outputs": [
        {
          "components": [
            {
              "internalType": "uint256",
              "name": "id",
              "type": "uint256"
            },
            {
              "internalType": "string",
              "name": "hashContent",
              "type": "string"
            },
            {
              "internalType": "uint256",
              "name": "tipAmount",
              "type": "uint256"
            },
            {
              "internalType": "address payable",
              "name": "author",
              "type": "address"
            }
          ],
          "internalType": "struct Exactly.Post",
          "name": "",
          "type": "tuple"
        }
      ],
      "stateMutability": "view",
      "type": "function"
    },
    {
      "inputs": [],
      "name": "getPostCount",
      "outputs": [
        {
          "internalType": "uint256",
          "name": "",
          "type": "uint256"
        }
      ],
      "stateMutability": "view",
      "type": "function"
    },
    {
      "inputs": [],
      "name": "getTokenCount",
      "outputs": [
        {
          "internalType": "uint256",
          "name": "",
          "type": "uint256"
        }
      ],
      "stateMutability": "view",
      "type": "function"
    },
    {
      "inputs": [
        {
          "internalType": "address",
          "name": "profile",
          "type": "address"
        }
      ],
      "name": "getTokenIdForProfile",
      "outputs": [
        {
          "internalType": "uint256",
          "name": "",
          "type": "uint256"
        }
      ],
      "stateMutability": "view",
      "type": "function"
    },
    {
      "inputs": [
        {
          "internalType": "address",
          "name": "owner",
          "type": "address"
        },
        {
          "internalType": "address",
          "name": "operator",
          "type": "address"
        }
      ],
      "name": "isApprovedForAll",
      "outputs": [
        {
          "internalType": "bool",
          "name": "",
          "type": "bool"
        }
      ],
      "stateMutability": "view",
      "type": "function"
    },
    {
      "inputs": [
        {
          "internalType": "string",
          "name": "_tokenURI",
          "type": "string"
        }
      ],
      "name": "mint",
      "outputs": [
        {
          "internalType": "uint256",
          "name": "",
          "type": "uint256"
        }
      ],
      "stateMutability": "nonpayable",
      "type": "function"
    },
    {
      "inputs": [],
      "name": "name",
      "outputs": [
        {
          "internalType": "string",
          "name": "",
          "type": "string"
        }
      ],
      "stateMutability": "view",
      "type": "function"
    },
    {
      "inputs": [
        {
          "internalType": "uint256",
          "name": "tokenId",
          "type": "uint256"
        }
      ],
      "name": "ownerOf",
      "outputs": [
        {
          "internalType": "address",
          "name": "",
          "type": "address"
        }
      ],
      "stateMutability": "view",
      "type": "function"
    },
    {
      "inputs": [
        {
          "internalType": "address",
          "name": "from",
          "type": "address"
        },
        {
          "internalType": "address",
          "name": "to",
          "type": "address"
        },
        {
          "internalType": "uint256",
          "name": "tokenId",
          "type": "uint256"
        }
      ],
      "name": "safeTransferFrom",
      "outputs": [],
      "stateMutability": "nonpayable",
      "type": "function"
    },
    {
      "inputs": [
        {
          "internalType": "address",
          "name": "from",
          "type": "address"
        },
        {
          "internalType": "address",
          "name": "to",
          "type": "address"
        },
        {
          "internalType": "uint256",
          "name": "tokenId",
          "type": "uint256"
        },
        {
          "internalType": "bytes",
          "name": "data",
          "type": "bytes"
        }
      ],
      "name": "safeTransferFrom",
      "outputs": [],
      "stateMutability": "nonpayable",
      "type": "function"
    },
    {
      "inputs": [
        {
          "internalType": "address",
          "name": "operator",
          "type": "address"
        },
        {
          "internalType": "bool",
          "name": "approved",
          "type": "bool"
        }
      ],
      "name": "setApprovalForAll",
      "outputs": [],
      "stateMutability": "nonpayable",
      "type": "function"
    },
    {
      "inputs": [
        {
          "internalType": "uint256",
          "name": "_tokenId",
          "type": "uint256"
        }
      ],
      "name": "setProfile",
      "outputs": [],
      "stateMutability": "nonpayable",
      "type": "function"
    },
    {
      "inputs": [
        {
          "internalType": "bytes4",
          "name": "interfaceId",
          "type": "bytes4"
        }
      ],
      "name": "supportsInterface",
      "outputs": [
        {
          "internalType": "bool",
          "name": "",
          "type": "bool"
        }
      ],
      "stateMutability": "view",
      "type": "function"
    },
    {
      "inputs": [],
      "name": "symbol",
      "outputs": [
        {
          "internalType": "string",
          "name": "",
          "type": "string"
        }
      ],
      "stateMutability": "view",
      "type": "function"
    },
    {
      "inputs": [
        {
          "internalType": "uint256",
          "name": "_postId",
          "type": "uint256"
        }
      ],
      "name": "tipPost",
      "outputs": [],
      "stateMutability": "payable",
      "type": "function"
    },
    {
      "inputs": [
        {
          "internalType": "uint256",
          "name": "tokenId",
          "type": "uint256"
        }
      ],
      "name": "tokenURI",
      "outputs": [
        {
          "internalType": "string",
          "name": "",
          "type": "string"
        }
      ],
      "stateMutability": "view",
      "type": "function"
    },
    {
      "inputs": [
        {
          "internalType": "address",
          "name": "from",
          "type": "address"
        },
        {
          "internalType": "address",
          "name": "to",
          "type": "address"
        },
        {
          "internalType": "uint256",
          "name": "tokenId",
          "type": "uint256"
        }
      ],
      "name": "transferFrom",
      "outputs": [],
      "stateMutability": "nonpayable",
      "type": "function"
    },
    {
      "inputs": [
        {
          "internalType": "string",
          "name": "_postHash",
          "type": "string"
        }
      ],
      "name": "uploadPost",
      "outputs": [],
      "stateMutability": "nonpayable",
      "type": "function"
    }
  ],
  "bytecode": "0x60806040523480156200001157600080fd5b506040518060400160405280600781526020017f45786163746c79000000000000000000000000000000000000000000000000008152506040518060400160405280600381526020017f4558430000000000000000000000000000000000000000000000000000000000815250816000908051906020019062000096929190620000b8565b508060019080519060200190620000af929190620000b8565b505050620001cd565b828054620000c69062000168565b90600052602060002090601f016020900481019282620000ea576000855562000136565b82601f106200010557805160ff191683800117855562000136565b8280016001018555821562000136579182015b828111156200013557825182559160200191906001019062000118565b5b50905062000145919062000149565b5090565b5b80821115620001645760008160009055506001016200014a565b5090565b600060028204905060018216806200018157607f821691505b602082108114156200019857620001976200019e565b5b50919050565b7f4e487b7100000000000000000000000000000000000000000000000000000000600052602260045260246000fd5b6139e780620001dd6000396000f3fe6080604052600436106101405760003560e01c806370a08231116100b6578063b88d4fde1161006f578063b88d4fde14610473578063bcc954071461049c578063bdd05adb146104c7578063c87b56dd146104f0578063d85d3d271461052d578063e985e9c51461056a57610140565b806370a082311461037257806374d3c1f8146103af57806378a89567146103cb57806385d3cb37146103f657806395d89b411461041f578063a22cb4651461044a57610140565b806323b872dd1161010857806323b872dd1461023e578063305611001461026757806340731c241461029257806342842e0e146102cf5780636352211e146102f85780636938e5fa1461033557610140565b806301ffc9a714610145578063047b07bf1461018257806306fdde03146101ad578063081812fc146101d8578063095ea7b314610215575b600080fd5b34801561015157600080fd5b5061016c600480360381019061016791906128e2565b6105a7565b6040516101799190612f1b565b60405180910390f35b34801561018e57600080fd5b50610197610689565b6040516101a49190612ef9565b60405180910390f35b3480156101b957600080fd5b506101c26107be565b6040516101cf9190612f36565b60405180910390f35b3480156101e457600080fd5b506101ff60048036038101906101fa9190612975565b610850565b60405161020c9190612e70565b60405180910390f35b34801561022157600080fd5b5061023c600480360381019061023791906128a6565b610896565b005b34801561024a57600080fd5b50610265600480360381019061026091906127a0565b6109ae565b005b34801561027357600080fd5b5061027c610a0e565b6040516102899190612ed7565b60405180910390f35b34801561029e57600080fd5b506102b960048036038101906102b49190612975565b610c1c565b6040516102c691906130d8565b60405180910390f35b3480156102db57600080fd5b506102f660048036038101906102f191906127a0565b610d45565b005b34801561030457600080fd5b5061031f600480360381019061031a9190612975565b610d65565b60405161032c9190612e70565b60405180910390f35b34801561034157600080fd5b5061035c6004803603810190610357919061273b565b610e17565b60405161036991906130fa565b60405180910390f35b34801561037e57600080fd5b506103996004803603810190610394919061273b565b610e60565b6040516103a691906130fa565b60405180910390f35b6103c960048036038101906103c49190612975565b610f18565b005b3480156103d757600080fd5b506103e0611261565b6040516103ed91906130fa565b60405180910390f35b34801561040257600080fd5b5061041d60048036038101906104189190612975565b61126b565b005b34801561042b57600080fd5b5061043461131f565b6040516104419190612f36565b60405180910390f35b34801561045657600080fd5b50610471600480360381019061046c919061286a565b6113b1565b005b34801561047f57600080fd5b5061049a600480360381019061049591906127ef565b6113c7565b005b3480156104a857600080fd5b506104b1611429565b6040516104be91906130fa565b60405180910390f35b3480156104d357600080fd5b506104ee60048036038101906104e99190612934565b611433565b005b3480156104fc57600080fd5b5061051760048036038101906105129190612975565b6115d5565b6040516105249190612f36565b60405180910390f35b34801561053957600080fd5b50610554600480360381019061054f9190612934565b6116e8565b60405161056191906130fa565b60405180910390f35b34801561057657600080fd5b50610591600480360381019061058c9190612764565b61172f565b60405161059e9190612f1b565b60405180910390f35b60007f80ac58cd000000000000000000000000000000000000000000000000000000007bffffffffffffffffffffffffffffffffffffffffffffffffffffffff1916827bffffffffffffffffffffffffffffffffffffffffffffffffffffffff1916148061067257507f5b5e139f000000000000000000000000000000000000000000000000000000007bffffffffffffffffffffffffffffffffffffffffffffffffffffffff1916827bffffffffffffffffffffffffffffffffffffffffffffffffffffffff1916145b806106825750610681826117c3565b5b9050919050565b606061069433610e60565b67ffffffffffffffff8111156106d3577f4e487b7100000000000000000000000000000000000000000000000000000000600052604160045260246000fd5b6040519080825280602002602001820160405280156107015781602001602082028036833780820191505090505b509050600080600190505b60075481116107b9573373ffffffffffffffffffffffffffffffffffffffff1661073582610d65565b73ffffffffffffffffffffffffffffffffffffffff1614156107a6578083838151811061078b577f4e487b7100000000000000000000000000000000000000000000000000000000600052603260045260246000fd5b60200260200101818152505081806107a2906134f2565b9250505b80806107b1906134f2565b91505061070c565b505090565b6060600080546107cd9061348f565b80601f01602080910402602001604051908101604052809291908181526020018280546107f99061348f565b80156108465780601f1061081b57610100808354040283529160200191610846565b820191906000526020600020905b81548152906001019060200180831161082957829003601f168201915b5050505050905090565b600061085b8261182d565b6004600083815260200190815260200160002060009054906101000a900473ffffffffffffffffffffffffffffffffffffffff169050919050565b60006108a182610d65565b90508073ffffffffffffffffffffffffffffffffffffffff168373ffffffffffffffffffffffffffffffffffffffff161415610912576040517f08c379a000000000000000000000000000000000000000000000000000000000815260040161090990613098565b60405180910390fd5b8073ffffffffffffffffffffffffffffffffffffffff16610931611878565b73ffffffffffffffffffffffffffffffffffffffff161480610960575061095f8161095a611878565b61172f565b5b61099f576040517f08c379a000000000000000000000000000000000000000000000000000000000815260040161099690613038565b60405180910390fd5b6109a98383611880565b505050565b6109bf6109b9611878565b82611939565b6109fe576040517f08c379a00000000000000000000000000000000000000000000000000000000081526004016109f5906130b8565b60405180910390fd5b610a098383836119ce565b505050565b606060085467ffffffffffffffff811115610a52577f4e487b7100000000000000000000000000000000000000000000000000000000600052604160045260246000fd5b604051908082528060200260200182016040528015610a8b57816020015b610a78612521565b815260200190600190039081610a705790505b50905060005b600854811015610c185760096000600183610aac91906132fa565b815260200190815260200160002060405180608001604052908160008201548152602001600182018054610adf9061348f565b80601f0160208091040260200160405190810160405280929190818152602001828054610b0b9061348f565b8015610b585780601f10610b2d57610100808354040283529160200191610b58565b820191906000526020600020905b815481529060010190602001808311610b3b57829003601f168201915b50505050508152602001600282015481526020016003820160009054906101000a900473ffffffffffffffffffffffffffffffffffffffff1673ffffffffffffffffffffffffffffffffffffffff1673ffffffffffffffffffffffffffffffffffffffff1681525050828281518110610bfa577f4e487b7100000000000000000000000000000000000000000000000000000000600052603260045260246000fd5b60200260200101819052508080610c10906134f2565b915050610a91565b5090565b610c24612521565b6009600083815260200190815260200160002060405180608001604052908160008201548152602001600182018054610c5c9061348f565b80601f0160208091040260200160405190810160405280929190818152602001828054610c889061348f565b8015610cd55780601f10610caa57610100808354040283529160200191610cd5565b820191906000526020600020905b815481529060010190602001808311610cb857829003601f168201915b50505050508152602001600282015481526020016003820160009054906101000a900473ffffffffffffffffffffffffffffffffffffffff1673ffffffffffffffffffffffffffffffffffffffff1673ffffffffffffffffffffffffffffffffffffffff16815250509050919050565b610d60838383604051806020016040528060008152506113c7565b505050565b6000806002600084815260200190815260200160002060009054906101000a900473ffffffffffffffffffffffffffffffffffffffff169050600073ffffffffffffffffffffffffffffffffffffffff168173ffffffffffffffffffffffffffffffffffffffff161415610e0e576040517f08c379a0000000000000000000000000000000000000000000000000000000008152600401610e0590613078565b60405180910390fd5b80915050919050565b6000600a60008373ffffffffffffffffffffffffffffffffffffffff1673ffffffffffffffffffffffffffffffffffffffff168152602001908152602001600020549050919050565b60008073ffffffffffffffffffffffffffffffffffffffff168273ffffffffffffffffffffffffffffffffffffffff161415610ed1576040517f08c379a0000000000000000000000000000000000000000000000000000000008152600401610ec890612ff8565b60405180910390fd5b600360008373ffffffffffffffffffffffffffffffffffffffff1673ffffffffffffffffffffffffffffffffffffffff168152602001908152602001600020549050919050565b6000811080610f28575060085481115b15610f5f576040517f6d69e9ca00000000000000000000000000000000000000000000000000000000815260040160405180910390fd5b60003411610f99576040517f9d88b4b800000000000000000000000000000000000000000000000000000000815260040160405180910390fd5b60006009600083815260200190815260200160002060405180608001604052908160008201548152602001600182018054610fd39061348f565b80601f0160208091040260200160405190810160405280929190818152602001828054610fff9061348f565b801561104c5780601f106110215761010080835404028352916020019161104c565b820191906000526020600020905b81548152906001019060200180831161102f57829003601f168201915b50505050508152602001600282015481526020016003820160009054906101000a900473ffffffffffffffffffffffffffffffffffffffff1673ffffffffffffffffffffffffffffffffffffffff1673ffffffffffffffffffffffffffffffffffffffff16815250509050806060015173ffffffffffffffffffffffffffffffffffffffff163373ffffffffffffffffffffffffffffffffffffffff161415611121576040517fc6cc468900000000000000000000000000000000000000000000000000000000815260040160405180910390fd5b806060015173ffffffffffffffffffffffffffffffffffffffff166108fc349081150290604051600060405180830381858888f1935050505015801561116b573d6000803e3d6000fd5b5034816040015161117c91906132fa565b81604001818152505080600960008481526020019081526020016000206000820151816000015560208201518160010190805190602001906111bf92919061255f565b506040820151816002015560608201518160030160006101000a81548173ffffffffffffffffffffffffffffffffffffffff021916908373ffffffffffffffffffffffffffffffffffffffff1602179055509050507fdd87ba58389c04b62ce26b73411af232bbb7ddf11368c03b9238f18a392348ec828260200151836040015184606001516040516112559493929190613161565b60405180910390a15050565b6000600754905090565b61127481610d65565b73ffffffffffffffffffffffffffffffffffffffff163373ffffffffffffffffffffffffffffffffffffffff16146112d8576040517f99c6f40300000000000000000000000000000000000000000000000000000000815260040160405180910390fd5b80600a60003373ffffffffffffffffffffffffffffffffffffffff1673ffffffffffffffffffffffffffffffffffffffff1681526020019081526020016000208190555050565b60606001805461132e9061348f565b80601f016020809104026020016040519081016040528092919081815260200182805461135a9061348f565b80156113a75780601f1061137c576101008083540402835291602001916113a7565b820191906000526020600020905b81548152906001019060200180831161138a57829003601f168201915b5050505050905090565b6113c36113bc611878565b8383611c35565b5050565b6113d86113d2611878565b83611939565b611417576040517f08c379a000000000000000000000000000000000000000000000000000000000815260040161140e906130b8565b60405180910390fd5b61142384848484611da2565b50505050565b6000600754905090565b600061143e33610e60565b11611475576040517f9d2ca2f200000000000000000000000000000000000000000000000000000000815260040160405180910390fd5b60008151116114b0576040517f97a1d26100000000000000000000000000000000000000000000000000000000815260040160405180910390fd5b600860008154809291906114c3906134f2565b919050555060405180608001604052806008548152602001828152602001600081526020013373ffffffffffffffffffffffffffffffffffffffff1681525060096000600854815260200190815260200160002060008201518160000155602082015181600101908051906020019061153d92919061255f565b506040820151816002015560608201518160030160006101000a81548173ffffffffffffffffffffffffffffffffffffffff021916908373ffffffffffffffffffffffffffffffffffffffff1602179055509050507f03d0e272ff804e9024b222f7a73f0c1b2deba6c7be8917773bdf62fcb6c3850c600854826000336040516115ca9493929190613115565b60405180910390a150565b60606115e08261182d565b60006006600084815260200190815260200160002080546116009061348f565b80601f016020809104026020016040519081016040528092919081815260200182805461162c9061348f565b80156116795780601f1061164e57610100808354040283529160200191611679565b820191906000526020600020905b81548152906001019060200180831161165c57829003601f168201915b50505050509050600061168a611dfe565b90506000815114156116a05781925050506116e3565b6000825111156116d55780826040516020016116bd929190612e4c565b604051602081830303815290604052925050506116e3565b6116de84611e15565b925050505b919050565b6000600760008154809291906116fd906134f2565b919050555061170e33600754611e7d565b61171a60075483611e9b565b61172560075461126b565b6007549050919050565b6000600560008473ffffffffffffffffffffffffffffffffffffffff1673ffffffffffffffffffffffffffffffffffffffff16815260200190815260200160002060008373ffffffffffffffffffffffffffffffffffffffff1673ffffffffffffffffffffffffffffffffffffffff16815260200190815260200160002060009054906101000a900460ff16905092915050565b60007f01ffc9a7000000000000000000000000000000000000000000000000000000007bffffffffffffffffffffffffffffffffffffffffffffffffffffffff1916827bffffffffffffffffffffffffffffffffffffffffffffffffffffffff1916149050919050565b61183681611f0f565b611875576040517f08c379a000000000000000000000000000000000000000000000000000000000815260040161186c90613078565b60405180910390fd5b50565b600033905090565b816004600083815260200190815260200160002060006101000a81548173ffffffffffffffffffffffffffffffffffffffff021916908373ffffffffffffffffffffffffffffffffffffffff160217905550808273ffffffffffffffffffffffffffffffffffffffff166118f383610d65565b73ffffffffffffffffffffffffffffffffffffffff167f8c5be1e5ebec7d5bd14f71427d1e84f3dd0314c0f7b2291e5b200ac8c7c3b92560405160405180910390a45050565b60008061194583610d65565b90508073ffffffffffffffffffffffffffffffffffffffff168473ffffffffffffffffffffffffffffffffffffffff1614806119875750611986818561172f565b5b806119c557508373ffffffffffffffffffffffffffffffffffffffff166119ad84610850565b73ffffffffffffffffffffffffffffffffffffffff16145b91505092915050565b8273ffffffffffffffffffffffffffffffffffffffff166119ee82610d65565b73ffffffffffffffffffffffffffffffffffffffff1614611a44576040517f08c379a0000000000000000000000000000000000000000000000000000000008152600401611a3b90612f78565b60405180910390fd5b600073ffffffffffffffffffffffffffffffffffffffff168273ffffffffffffffffffffffffffffffffffffffff161415611ab4576040517f08c379a0000000000000000000000000000000000000000000000000000000008152600401611aab90612fb8565b60405180910390fd5b611abf838383611f7b565b611aca600082611880565b6001600360008573ffffffffffffffffffffffffffffffffffffffff1673ffffffffffffffffffffffffffffffffffffffff1681526020019081526020016000206000828254611b1a9190613381565b925050819055506001600360008473ffffffffffffffffffffffffffffffffffffffff1673ffffffffffffffffffffffffffffffffffffffff1681526020019081526020016000206000828254611b7191906132fa565b92505081905550816002600083815260200190815260200160002060006101000a81548173ffffffffffffffffffffffffffffffffffffffff021916908373ffffffffffffffffffffffffffffffffffffffff160217905550808273ffffffffffffffffffffffffffffffffffffffff168473ffffffffffffffffffffffffffffffffffffffff167fddf252ad1be2c89b69c2b068fc378daa952ba7f163c4a11628f55a4df523b3ef60405160405180910390a4611c30838383611f80565b505050565b8173ffffffffffffffffffffffffffffffffffffffff168373ffffffffffffffffffffffffffffffffffffffff161415611ca4576040517f08c379a0000000000000000000000000000000000000000000000000000000008152600401611c9b90612fd8565b60405180910390fd5b80600560008573ffffffffffffffffffffffffffffffffffffffff1673ffffffffffffffffffffffffffffffffffffffff16815260200190815260200160002060008473ffffffffffffffffffffffffffffffffffffffff1673ffffffffffffffffffffffffffffffffffffffff16815260200190815260200160002060006101000a81548160ff0219169083151502179055508173ffffffffffffffffffffffffffffffffffffffff168373ffffffffffffffffffffffffffffffffffffffff167f17307eab39ab6107e8899845ad3d59bd9653f200f220920489ca2b5937696c3183604051611d959190612f1b565b60405180910390a3505050565b611dad8484846119ce565b611db984848484611f85565b611df8576040517f08c379a0000000000000000000000000000000000000000000000000000000008152600401611def90612f58565b60405180910390fd5b50505050565b606060405180602001604052806000815250905090565b6060611e208261182d565b6000611e2a611dfe565b90506000815111611e4a5760405180602001604052806000815250611e75565b80611e548461211c565b604051602001611e65929190612e4c565b6040516020818303038152906040525b915050919050565b611e978282604051806020016040528060008152506122c9565b5050565b611ea482611f0f565b611ee3576040517f08c379a0000000000000000000000000000000000000000000000000000000008152600401611eda90613018565b60405180910390fd5b80600660008481526020019081526020016000209080519060200190611f0a92919061255f565b505050565b60008073ffffffffffffffffffffffffffffffffffffffff166002600084815260200190815260200160002060009054906101000a900473ffffffffffffffffffffffffffffffffffffffff1673ffffffffffffffffffffffffffffffffffffffff1614159050919050565b505050565b505050565b6000611fa68473ffffffffffffffffffffffffffffffffffffffff16612324565b1561210f578373ffffffffffffffffffffffffffffffffffffffff1663150b7a02611fcf611878565b8786866040518563ffffffff1660e01b8152600401611ff19493929190612e8b565b602060405180830381600087803b15801561200b57600080fd5b505af192505050801561203c57506040513d601f19601f82011682018060405250810190612039919061290b565b60015b6120bf573d806000811461206c576040519150601f19603f3d011682016040523d82523d6000602084013e612071565b606091505b506000815114156120b7576040517f08c379a00000000000000000000000000000000000000000000000000000000081526004016120ae90612f58565b60405180910390fd5b805181602001fd5b63150b7a0260e01b7bffffffffffffffffffffffffffffffffffffffffffffffffffffffff1916817bffffffffffffffffffffffffffffffffffffffffffffffffffffffff191614915050612114565b600190505b949350505050565b60606000821415612164576040518060400160405280600181526020017f300000000000000000000000000000000000000000000000000000000000000081525090506122c4565b600082905060005b6000821461219657808061217f906134f2565b915050600a8261218f9190613350565b915061216c565b60008167ffffffffffffffff8111156121d8577f4e487b7100000000000000000000000000000000000000000000000000000000600052604160045260246000fd5b6040519080825280601f01601f19166020018201604052801561220a5781602001600182028036833780820191505090505b5090505b600085146122bd576001826122239190613381565b9150600a85612232919061353b565b603061223e91906132fa565b60f81b81838151811061227a577f4e487b7100000000000000000000000000000000000000000000000000000000600052603260045260246000fd5b60200101907effffffffffffffffffffffffffffffffffffffffffffffffffffffffffffff1916908160001a905350600a856122b69190613350565b945061220e565b8093505050505b919050565b6122d38383612347565b6122e06000848484611f85565b61231f576040517f08c379a000000000000000000000000000000000000000000000000000000000815260040161231690612f58565b60405180910390fd5b505050565b6000808273ffffffffffffffffffffffffffffffffffffffff163b119050919050565b600073ffffffffffffffffffffffffffffffffffffffff168273ffffffffffffffffffffffffffffffffffffffff1614156123b7576040517f08c379a00000000000000000000000000000000000000000000000000000000081526004016123ae90613058565b60405180910390fd5b6123c081611f0f565b15612400576040517f08c379a00000000000000000000000000000000000000000000000000000000081526004016123f790612f98565b60405180910390fd5b61240c60008383611f7b565b6001600360008473ffffffffffffffffffffffffffffffffffffffff1673ffffffffffffffffffffffffffffffffffffffff168152602001908152602001600020600082825461245c91906132fa565b92505081905550816002600083815260200190815260200160002060006101000a81548173ffffffffffffffffffffffffffffffffffffffff021916908373ffffffffffffffffffffffffffffffffffffffff160217905550808273ffffffffffffffffffffffffffffffffffffffff16600073ffffffffffffffffffffffffffffffffffffffff167fddf252ad1be2c89b69c2b068fc378daa952ba7f163c4a11628f55a4df523b3ef60405160405180910390a461251d60008383611f80565b5050565b6040518060800160405280600081526020016060815260200160008152602001600073ffffffffffffffffffffffffffffffffffffffff1681525090565b82805461256b9061348f565b90600052602060002090601f01602090048101928261258d57600085556125d4565b82601f106125a657805160ff19168380011785556125d4565b828001600101855582156125d4579182015b828111156125d35782518255916020019190600101906125b8565b5b5090506125e191906125e5565b5090565b5b808211156125fe5760008160009055506001016125e6565b5090565b6000612615612610846131d2565b6131ad565b90508281526020810184848401111561262d57600080fd5b61263884828561344d565b509392505050565b600061265361264e84613203565b6131ad565b90508281526020810184848401111561266b57600080fd5b61267684828561344d565b509392505050565b60008135905061268d81613955565b92915050565b6000813590506126a28161396c565b92915050565b6000813590506126b781613983565b92915050565b6000815190506126cc81613983565b92915050565b600082601f8301126126e357600080fd5b81356126f3848260208601612602565b91505092915050565b600082601f83011261270d57600080fd5b813561271d848260208601612640565b91505092915050565b6000813590506127358161399a565b92915050565b60006020828403121561274d57600080fd5b600061275b8482850161267e565b91505092915050565b6000806040838503121561277757600080fd5b60006127858582860161267e565b92505060206127968582860161267e565b9150509250929050565b6000806000606084860312156127b557600080fd5b60006127c38682870161267e565b93505060206127d48682870161267e565b92505060406127e586828701612726565b9150509250925092565b6000806000806080858703121561280557600080fd5b60006128138782880161267e565b94505060206128248782880161267e565b935050604061283587828801612726565b925050606085013567ffffffffffffffff81111561285257600080fd5b61285e878288016126d2565b91505092959194509250565b6000806040838503121561287d57600080fd5b600061288b8582860161267e565b925050602061289c85828601612693565b9150509250929050565b600080604083850312156128b957600080fd5b60006128c78582860161267e565b92505060206128d885828601612726565b9150509250929050565b6000602082840312156128f457600080fd5b6000612902848285016126a8565b91505092915050565b60006020828403121561291d57600080fd5b600061292b848285016126bd565b91505092915050565b60006020828403121561294657600080fd5b600082013567ffffffffffffffff81111561296057600080fd5b61296c848285016126fc565b91505092915050565b60006020828403121561298757600080fd5b600061299584828501612726565b91505092915050565b60006129aa8383612d68565b905092915050565b60006129be8383612e2e565b60208301905092915050565b6129d3816133c7565b82525050565b6129e2816133c7565b82525050565b6129f1816133b5565b82525050565b6000612a0282613254565b612a0c818561329a565b935083602082028501612a1e85613234565b8060005b85811015612a5a5784840389528151612a3b858261299e565b9450612a4683613280565b925060208a01995050600181019050612a22565b50829750879550505050505092915050565b6000612a778261325f565b612a8181856132ab565b9350612a8c83613244565b8060005b83811015612abd578151612aa488826129b2565b9750612aaf8361328d565b925050600181019050612a90565b5085935050505092915050565b612ad3816133d9565b82525050565b6000612ae48261326a565b612aee81856132bc565b9350612afe81856020860161345c565b612b0781613628565b840191505092915050565b612b1b8161343b565b82525050565b6000612b2c82613275565b612b3681856132cd565b9350612b4681856020860161345c565b612b4f81613628565b840191505092915050565b6000612b6582613275565b612b6f81856132de565b9350612b7f81856020860161345c565b612b8881613628565b840191505092915050565b6000612b9e82613275565b612ba881856132ef565b9350612bb881856020860161345c565b80840191505092915050565b6000612bd16032836132de565b9150612bdc82613639565b604082019050919050565b6000612bf46025836132de565b9150612bff82613688565b604082019050919050565b6000612c17601c836132de565b9150612c22826136d7565b602082019050919050565b6000612c3a6024836132de565b9150612c4582613700565b604082019050919050565b6000612c5d6019836132de565b9150612c688261374f565b602082019050919050565b6000612c806029836132de565b9150612c8b82613778565b604082019050919050565b6000612ca3602e836132de565b9150612cae826137c7565b604082019050919050565b6000612cc6603e836132de565b9150612cd182613816565b604082019050919050565b6000612ce96020836132de565b9150612cf482613865565b602082019050919050565b6000612d0c6018836132de565b9150612d178261388e565b602082019050919050565b6000612d2f6021836132de565b9150612d3a826138b7565b604082019050919050565b6000612d52602e836132de565b9150612d5d82613906565b604082019050919050565b6000608083016000830151612d806000860182612e2e565b5060208301518482036020860152612d988282612b21565b9150506040830151612dad6040860182612e2e565b506060830151612dc060608601826129ca565b508091505092915050565b6000608083016000830151612de36000860182612e2e565b5060208301518482036020860152612dfb8282612b21565b9150506040830151612e106040860182612e2e565b506060830151612e2360608601826129ca565b508091505092915050565b612e3781613431565b82525050565b612e4681613431565b82525050565b6000612e588285612b93565b9150612e648284612b93565b91508190509392505050565b6000602082019050612e8560008301846129e8565b92915050565b6000608082019050612ea060008301876129e8565b612ead60208301866129e8565b612eba6040830185612e3d565b8181036060830152612ecc8184612ad9565b905095945050505050565b60006020820190508181036000830152612ef181846129f7565b905092915050565b60006020820190508181036000830152612f138184612a6c565b905092915050565b6000602082019050612f306000830184612aca565b92915050565b60006020820190508181036000830152612f508184612b5a565b905092915050565b60006020820190508181036000830152612f7181612bc4565b9050919050565b60006020820190508181036000830152612f9181612be7565b9050919050565b60006020820190508181036000830152612fb181612c0a565b9050919050565b60006020820190508181036000830152612fd181612c2d565b9050919050565b60006020820190508181036000830152612ff181612c50565b9050919050565b6000602082019050818103600083015261301181612c73565b9050919050565b6000602082019050818103600083015261303181612c96565b9050919050565b6000602082019050818103600083015261305181612cb9565b9050919050565b6000602082019050818103600083015261307181612cdc565b9050919050565b6000602082019050818103600083015261309181612cff565b9050919050565b600060208201905081810360008301526130b181612d22565b9050919050565b600060208201905081810360008301526130d181612d45565b9050919050565b600060208201905081810360008301526130f28184612dcb565b905092915050565b600060208201905061310f6000830184612e3d565b92915050565b600060808201905061312a6000830187612e3d565b818103602083015261313c8186612b5a565b905061314b6040830185612b12565b61315860608301846129d9565b95945050505050565b60006080820190506131766000830187612e3d565b81810360208301526131888186612b5a565b90506131976040830185612e3d565b6131a460608301846129d9565b95945050505050565b60006131b76131c8565b90506131c382826134c1565b919050565b6000604051905090565b600067ffffffffffffffff8211156131ed576131ec6135f9565b5b6131f682613628565b9050602081019050919050565b600067ffffffffffffffff82111561321e5761321d6135f9565b5b61322782613628565b9050602081019050919050565b6000819050602082019050919050565b6000819050602082019050919050565b600081519050919050565b600081519050919050565b600081519050919050565b600081519050919050565b6000602082019050919050565b6000602082019050919050565b600082825260208201905092915050565b600082825260208201905092915050565b600082825260208201905092915050565b600082825260208201905092915050565b600082825260208201905092915050565b600081905092915050565b600061330582613431565b915061331083613431565b9250827fffffffffffffffffffffffffffffffffffffffffffffffffffffffffffffffff038211156133455761334461356c565b5b828201905092915050565b600061335b82613431565b915061336683613431565b9250826133765761337561359b565b5b828204905092915050565b600061338c82613431565b915061339783613431565b9250828210156133aa576133a961356c565b5b828203905092915050565b60006133c082613411565b9050919050565b60006133d282613411565b9050919050565b60008115159050919050565b60007fffffffff0000000000000000000000000000000000000000000000000000000082169050919050565b600073ffffffffffffffffffffffffffffffffffffffff82169050919050565b6000819050919050565b600061344682613431565b9050919050565b82818337600083830152505050565b60005b8381101561347a57808201518184015260208101905061345f565b83811115613489576000848401525b50505050565b600060028204905060018216806134a757607f821691505b602082108114156134bb576134ba6135ca565b5b50919050565b6134ca82613628565b810181811067ffffffffffffffff821117156134e9576134e86135f9565b5b80604052505050565b60006134fd82613431565b91507fffffffffffffffffffffffffffffffffffffffffffffffffffffffffffffffff8214156135305761352f61356c565b5b600182019050919050565b600061354682613431565b915061355183613431565b9250826135615761356061359b565b5b828206905092915050565b7f4e487b7100000000000000000000000000000000000000000000000000000000600052601160045260246000fd5b7f4e487b7100000000000000000000000000000000000000000000000000000000600052601260045260246000fd5b7f4e487b7100000000000000000000000000000000000000000000000000000000600052602260045260246000fd5b7f4e487b7100000000000000000000000000000000000000000000000000000000600052604160045260246000fd5b6000601f19601f8301169050919050565b7f4552433732313a207472616e7366657220746f206e6f6e20455243373231526560008201527f63656976657220696d706c656d656e7465720000000000000000000000000000602082015250565b7f4552433732313a207472616e736665722066726f6d20696e636f72726563742060008201527f6f776e6572000000000000000000000000000000000000000000000000000000602082015250565b7f4552433732313a20746f6b656e20616c7265616479206d696e74656400000000600082015250565b7f4552433732313a207472616e7366657220746f20746865207a65726f2061646460008201527f7265737300000000000000000000000000000000000000000000000000000000602082015250565b7f4552433732313a20617070726f766520746f2063616c6c657200000000000000600082015250565b7f4552433732313a2061646472657373207a65726f206973206e6f74206120766160008201527f6c6964206f776e65720000000000000000000000000000000000000000000000602082015250565b7f45524337323155524953746f726167653a2055524920736574206f66206e6f6e60008201527f6578697374656e7420746f6b656e000000000000000000000000000000000000602082015250565b7f4552433732313a20617070726f76652063616c6c6572206973206e6f7420746f60008201527f6b656e206f776e6572206e6f7220617070726f76656420666f7220616c6c0000602082015250565b7f4552433732313a206d696e7420746f20746865207a65726f2061646472657373600082015250565b7f4552433732313a20696e76616c696420746f6b656e2049440000000000000000600082015250565b7f4552433732313a20617070726f76616c20746f2063757272656e74206f776e6560008201527f7200000000000000000000000000000000000000000000000000000000000000602082015250565b7f4552433732313a2063616c6c6572206973206e6f7420746f6b656e206f776e6560008201527f72206e6f7220617070726f766564000000000000000000000000000000000000602082015250565b61395e816133b5565b811461396957600080fd5b50565b613975816133d9565b811461398057600080fd5b50565b61398c816133e5565b811461399757600080fd5b50565b6139a381613431565b81146139ae57600080fd5b5056fea26469706673582212207bb66e26e1e4318c18b3e0ed6d282f47bbe9ef3f188409140d757e6c55e115fe64736f6c63430008040033",
  "linkReferences": {},
  "deployedLinkReferences": {}
}