{
  "_format": "hh-sol-artifact-1",
  "contractName": "Exactly",
  "sourceName": "contracts/Exactly.sol",
  "abi": [
    {
      "inputs": [],
      "stateMutability": "nonpayable",
      "type": "constructor"
    },
    {
      "inputs": [],
      "name": "Exactly__MustOwnNftToPost",
      "type": "error"
    },
    {
      "inputs": [],
      "name": "Exactly__NotOwner",
      "type": "error"
    },
    {
      "inputs": [],
      "name": "Exactly__PostCanNotBeEmpty",
      "type": "error"
    },
    {
      "anonymous": false,
      "inputs": [
        {
          "indexed": true,
          "internalType": "address",
          "name": "owner",
          "type": "address"
        },
        {
          "indexed": true,
          "internalType": "address",
          "name": "approved",
          "type": "address"
        },
        {
          "indexed": true,
          "internalType": "uint256",
          "name": "tokenId",
          "type": "uint256"
        }
      ],
      "name": "Approval",
      "type": "event"
    },
    {
      "anonymous": false,
      "inputs": [
        {
          "indexed": true,
          "internalType": "address",
          "name": "owner",
          "type": "address"
        },
        {
          "indexed": true,
          "internalType": "address",
          "name": "operator",
          "type": "address"
        },
        {
          "indexed": false,
          "internalType": "bool",
          "name": "approved",
          "type": "bool"
        }
      ],
      "name": "ApprovalForAll",
      "type": "event"
    },
    {
      "anonymous": false,
      "inputs": [
        {
          "indexed": false,
          "internalType": "uint256",
          "name": "id",
          "type": "uint256"
        },
        {
          "indexed": false,
          "internalType": "string",
          "name": "hashContent",
          "type": "string"
        },
        {
          "indexed": false,
          "internalType": "uint256",
          "name": "tipAmount",
          "type": "uint256"
        },
        {
          "indexed": false,
          "internalType": "address payable",
          "name": "author",
          "type": "address"
        }
      ],
      "name": "Exactly__PostCreated",
      "type": "event"
    },
    {
      "anonymous": false,
      "inputs": [
        {
          "indexed": false,
          "internalType": "uint256",
          "name": "id",
          "type": "uint256"
        },
        {
          "indexed": false,
          "internalType": "string",
          "name": "hashContent",
          "type": "string"
        },
        {
          "indexed": false,
          "internalType": "uint256",
          "name": "tipAmount",
          "type": "uint256"
        },
        {
          "indexed": false,
          "internalType": "address payable",
          "name": "author",
          "type": "address"
        }
      ],
      "name": "Exactly__PostTipped",
      "type": "event"
    },
    {
      "anonymous": false,
      "inputs": [
        {
          "indexed": true,
          "internalType": "address",
          "name": "from",
          "type": "address"
        },
        {
          "indexed": true,
          "internalType": "address",
          "name": "to",
          "type": "address"
        },
        {
          "indexed": true,
          "internalType": "uint256",
          "name": "tokenId",
          "type": "uint256"
        }
      ],
      "name": "Transfer",
      "type": "event"
    },
    {
      "inputs": [
        {
          "internalType": "address",
          "name": "to",
          "type": "address"
        },
        {
          "internalType": "uint256",
          "name": "tokenId",
          "type": "uint256"
        }
      ],
      "name": "approve",
      "outputs": [],
      "stateMutability": "nonpayable",
      "type": "function"
    },
    {
      "inputs": [
        {
          "internalType": "address",
          "name": "owner",
          "type": "address"
        }
      ],
      "name": "balanceOf",
      "outputs": [
        {
          "internalType": "uint256",
          "name": "",
          "type": "uint256"
        }
      ],
      "stateMutability": "view",
      "type": "function"
    },
    {
      "inputs": [
        {
          "internalType": "uint256",
          "name": "tokenId",
          "type": "uint256"
        }
      ],
      "name": "getApproved",
      "outputs": [
        {
          "internalType": "address",
          "name": "",
          "type": "address"
        }
      ],
      "stateMutability": "view",
      "type": "function"
    },
    {
      "inputs": [
        {
          "internalType": "uint256",
          "name": "postCount",
          "type": "uint256"
        }
      ],
      "name": "getPost",
      "outputs": [
        {
          "components": [
            {
              "internalType": "uint256",
              "name": "id",
              "type": "uint256"
            },
            {
              "internalType": "string",
              "name": "hashContent",
              "type": "string"
            },
            {
              "internalType": "uint256",
              "name": "tipAmount",
              "type": "uint256"
            },
            {
              "internalType": "address payable",
              "name": "author",
              "type": "address"
            }
          ],
          "internalType": "struct Exactly.Post",
          "name": "",
          "type": "tuple"
        }
      ],
      "stateMutability": "view",
      "type": "function"
    },
    {
      "inputs": [],
      "name": "getPostCount",
      "outputs": [
        {
          "internalType": "uint256",
          "name": "",
          "type": "uint256"
        }
      ],
      "stateMutability": "view",
      "type": "function"
    },
    {
      "inputs": [],
      "name": "getTokenCount",
      "outputs": [
        {
          "internalType": "uint256",
          "name": "",
          "type": "uint256"
        }
      ],
      "stateMutability": "view",
      "type": "function"
    },
    {
      "inputs": [
        {
          "internalType": "address",
          "name": "profile",
          "type": "address"
        }
      ],
      "name": "getTokenIdForProfile",
      "outputs": [
        {
          "internalType": "uint256",
          "name": "",
          "type": "uint256"
        }
      ],
      "stateMutability": "view",
      "type": "function"
    },
    {
      "inputs": [
        {
          "internalType": "address",
          "name": "owner",
          "type": "address"
        },
        {
          "internalType": "address",
          "name": "operator",
          "type": "address"
        }
      ],
      "name": "isApprovedForAll",
      "outputs": [
        {
          "internalType": "bool",
          "name": "",
          "type": "bool"
        }
      ],
      "stateMutability": "view",
      "type": "function"
    },
    {
      "inputs": [
        {
          "internalType": "string",
          "name": "_tokenURI",
          "type": "string"
        }
      ],
      "name": "mint",
      "outputs": [
        {
          "internalType": "uint256",
          "name": "",
          "type": "uint256"
        }
      ],
      "stateMutability": "nonpayable",
      "type": "function"
    },
    {
      "inputs": [],
      "name": "name",
      "outputs": [
        {
          "internalType": "string",
          "name": "",
          "type": "string"
        }
      ],
      "stateMutability": "view",
      "type": "function"
    },
    {
      "inputs": [
        {
          "internalType": "uint256",
          "name": "tokenId",
          "type": "uint256"
        }
      ],
      "name": "ownerOf",
      "outputs": [
        {
          "internalType": "address",
          "name": "",
          "type": "address"
        }
      ],
      "stateMutability": "view",
      "type": "function"
    },
    {
      "inputs": [
        {
          "internalType": "address",
          "name": "from",
          "type": "address"
        },
        {
          "internalType": "address",
          "name": "to",
          "type": "address"
        },
        {
          "internalType": "uint256",
          "name": "tokenId",
          "type": "uint256"
        }
      ],
      "name": "safeTransferFrom",
      "outputs": [],
      "stateMutability": "nonpayable",
      "type": "function"
    },
    {
      "inputs": [
        {
          "internalType": "address",
          "name": "from",
          "type": "address"
        },
        {
          "internalType": "address",
          "name": "to",
          "type": "address"
        },
        {
          "internalType": "uint256",
          "name": "tokenId",
          "type": "uint256"
        },
        {
          "internalType": "bytes",
          "name": "data",
          "type": "bytes"
        }
      ],
      "name": "safeTransferFrom",
      "outputs": [],
      "stateMutability": "nonpayable",
      "type": "function"
    },
    {
      "inputs": [
        {
          "internalType": "address",
          "name": "operator",
          "type": "address"
        },
        {
          "internalType": "bool",
          "name": "approved",
          "type": "bool"
        }
      ],
      "name": "setApprovalForAll",
      "outputs": [],
      "stateMutability": "nonpayable",
      "type": "function"
    },
    {
      "inputs": [
        {
          "internalType": "uint256",
          "name": "_tokenId",
          "type": "uint256"
        }
      ],
      "name": "setProfile",
      "outputs": [],
      "stateMutability": "nonpayable",
      "type": "function"
    },
    {
      "inputs": [
        {
          "internalType": "bytes4",
          "name": "interfaceId",
          "type": "bytes4"
        }
      ],
      "name": "supportsInterface",
      "outputs": [
        {
          "internalType": "bool",
          "name": "",
          "type": "bool"
        }
      ],
      "stateMutability": "view",
      "type": "function"
    },
    {
      "inputs": [],
      "name": "symbol",
      "outputs": [
        {
          "internalType": "string",
          "name": "",
          "type": "string"
        }
      ],
      "stateMutability": "view",
      "type": "function"
    },
    {
      "inputs": [
        {
          "internalType": "uint256",
          "name": "tokenId",
          "type": "uint256"
        }
      ],
      "name": "tokenURI",
      "outputs": [
        {
          "internalType": "string",
          "name": "",
          "type": "string"
        }
      ],
      "stateMutability": "view",
      "type": "function"
    },
    {
      "inputs": [
        {
          "internalType": "address",
          "name": "from",
          "type": "address"
        },
        {
          "internalType": "address",
          "name": "to",
          "type": "address"
        },
        {
          "internalType": "uint256",
          "name": "tokenId",
          "type": "uint256"
        }
      ],
      "name": "transferFrom",
      "outputs": [],
      "stateMutability": "nonpayable",
      "type": "function"
    },
    {
      "inputs": [
        {
          "internalType": "string",
          "name": "_postHash",
          "type": "string"
        }
      ],
      "name": "uploadPost",
      "outputs": [],
      "stateMutability": "nonpayable",
      "type": "function"
    }
  ],
  "bytecode": "0x60806040523480156200001157600080fd5b506040518060400160405280600781526020017f45786163746c79000000000000000000000000000000000000000000000000008152506040518060400160405280600381526020017f4558430000000000000000000000000000000000000000000000000000000000815250816000908051906020019062000096929190620000b8565b508060019080519060200190620000af929190620000b8565b505050620001cd565b828054620000c69062000168565b90600052602060002090601f016020900481019282620000ea576000855562000136565b82601f106200010557805160ff191683800117855562000136565b8280016001018555821562000136579182015b828111156200013557825182559160200191906001019062000118565b5b50905062000145919062000149565b5090565b5b80821115620001645760008160009055506001016200014a565b5090565b600060028204905060018216806200018157607f821691505b602082108114156200019857620001976200019e565b5b50919050565b7f4e487b7100000000000000000000000000000000000000000000000000000000600052602260045260246000fd5b612f6d80620001dd6000396000f3fe608060405234801561001057600080fd5b506004361061012c5760003560e01c806378a89567116100ad578063bcc9540711610071578063bcc9540714610353578063bdd05adb14610371578063c87b56dd1461038d578063d85d3d27146103bd578063e985e9c5146103ed5761012c565b806378a89567146102c357806385d3cb37146102e157806395d89b41146102fd578063a22cb4651461031b578063b88d4fde146103375761012c565b806340731c24116100f457806340731c24146101e757806342842e0e146102175780636352211e146102335780636938e5fa1461026357806370a08231146102935761012c565b806301ffc9a71461013157806306fdde0314610161578063081812fc1461017f578063095ea7b3146101af57806323b872dd146101cb575b600080fd5b61014b600480360381019061014691906120cc565b61041d565b604051610158919061255f565b60405180910390f35b6101696104ff565b604051610176919061257a565b60405180910390f35b6101996004803603810190610194919061215f565b610591565b6040516101a691906124f8565b60405180910390f35b6101c960048036038101906101c49190612090565b6105d7565b005b6101e560048036038101906101e09190611f8a565b6106ef565b005b61020160048036038101906101fc919061215f565b61074f565b60405161020e919061271c565b60405180910390f35b610231600480360381019061022c9190611f8a565b610878565b005b61024d6004803603810190610248919061215f565b610898565b60405161025a91906124f8565b60405180910390f35b61027d60048036038101906102789190611f25565b61094a565b60405161028a919061273e565b60405180910390f35b6102ad60048036038101906102a89190611f25565b610993565b6040516102ba919061273e565b60405180910390f35b6102cb610a4b565b6040516102d8919061273e565b60405180910390f35b6102fb60048036038101906102f6919061215f565b610a55565b005b610305610b09565b604051610312919061257a565b60405180910390f35b61033560048036038101906103309190612054565b610b9b565b005b610351600480360381019061034c9190611fd9565b610bb1565b005b61035b610c13565b604051610368919061273e565b60405180910390f35b61038b6004803603810190610386919061211e565b610c1d565b005b6103a760048036038101906103a2919061215f565b610dbf565b6040516103b4919061257a565b60405180910390f35b6103d760048036038101906103d2919061211e565b610ed2565b6040516103e4919061273e565b60405180910390f35b61040760048036038101906104029190611f4e565b610f19565b604051610414919061255f565b60405180910390f35b60007f80ac58cd000000000000000000000000000000000000000000000000000000007bffffffffffffffffffffffffffffffffffffffffffffffffffffffff1916827bffffffffffffffffffffffffffffffffffffffffffffffffffffffff191614806104e857507f5b5e139f000000000000000000000000000000000000000000000000000000007bffffffffffffffffffffffffffffffffffffffffffffffffffffffff1916827bffffffffffffffffffffffffffffffffffffffffffffffffffffffff1916145b806104f857506104f782610fad565b5b9050919050565b60606000805461050e90612a15565b80601f016020809104026020016040519081016040528092919081815260200182805461053a90612a15565b80156105875780601f1061055c57610100808354040283529160200191610587565b820191906000526020600020905b81548152906001019060200180831161056a57829003601f168201915b5050505050905090565b600061059c82611017565b6004600083815260200190815260200160002060009054906101000a900473ffffffffffffffffffffffffffffffffffffffff169050919050565b60006105e282610898565b90508073ffffffffffffffffffffffffffffffffffffffff168373ffffffffffffffffffffffffffffffffffffffff161415610653576040517f08c379a000000000000000000000000000000000000000000000000000000000815260040161064a906126dc565b60405180910390fd5b8073ffffffffffffffffffffffffffffffffffffffff16610672611062565b73ffffffffffffffffffffffffffffffffffffffff1614806106a157506106a08161069b611062565b610f19565b5b6106e0576040517f08c379a00000000000000000000000000000000000000000000000000000000081526004016106d79061267c565b60405180910390fd5b6106ea838361106a565b505050565b6107006106fa611062565b82611123565b61073f576040517f08c379a0000000000000000000000000000000000000000000000000000000008152600401610736906126fc565b60405180910390fd5b61074a8383836111b8565b505050565b610757611d0b565b600960008381526020019081526020016000206040518060800160405290816000820154815260200160018201805461078f90612a15565b80601f01602080910402602001604051908101604052809291908181526020018280546107bb90612a15565b80156108085780601f106107dd57610100808354040283529160200191610808565b820191906000526020600020905b8154815290600101906020018083116107eb57829003601f168201915b50505050508152602001600282015481526020016003820160009054906101000a900473ffffffffffffffffffffffffffffffffffffffff1673ffffffffffffffffffffffffffffffffffffffff1673ffffffffffffffffffffffffffffffffffffffff16815250509050919050565b61089383838360405180602001604052806000815250610bb1565b505050565b6000806002600084815260200190815260200160002060009054906101000a900473ffffffffffffffffffffffffffffffffffffffff169050600073ffffffffffffffffffffffffffffffffffffffff168173ffffffffffffffffffffffffffffffffffffffff161415610941576040517f08c379a0000000000000000000000000000000000000000000000000000000008152600401610938906126bc565b60405180910390fd5b80915050919050565b6000600a60008373ffffffffffffffffffffffffffffffffffffffff1673ffffffffffffffffffffffffffffffffffffffff168152602001908152602001600020549050919050565b60008073ffffffffffffffffffffffffffffffffffffffff168273ffffffffffffffffffffffffffffffffffffffff161415610a04576040517f08c379a00000000000000000000000000000000000000000000000000000000081526004016109fb9061263c565b60405180910390fd5b600360008373ffffffffffffffffffffffffffffffffffffffff1673ffffffffffffffffffffffffffffffffffffffff168152602001908152602001600020549050919050565b6000600754905090565b610a5e81610898565b73ffffffffffffffffffffffffffffffffffffffff163373ffffffffffffffffffffffffffffffffffffffff1614610ac2576040517f99c6f40300000000000000000000000000000000000000000000000000000000815260040160405180910390fd5b80600a60003373ffffffffffffffffffffffffffffffffffffffff1673ffffffffffffffffffffffffffffffffffffffff1681526020019081526020016000208190555050565b606060018054610b1890612a15565b80601f0160208091040260200160405190810160405280929190818152602001828054610b4490612a15565b8015610b915780601f10610b6657610100808354040283529160200191610b91565b820191906000526020600020905b815481529060010190602001808311610b7457829003601f168201915b5050505050905090565b610bad610ba6611062565b838361141f565b5050565b610bc2610bbc611062565b83611123565b610c01576040517f08c379a0000000000000000000000000000000000000000000000000000000008152600401610bf8906126fc565b60405180910390fd5b610c0d8484848461158c565b50505050565b6000600754905090565b6000610c2833610993565b11610c5f576040517f9d2ca2f200000000000000000000000000000000000000000000000000000000815260040160405180910390fd5b6000815111610c9a576040517f97a1d26100000000000000000000000000000000000000000000000000000000815260040160405180910390fd5b60086000815480929190610cad90612a78565b919050555060405180608001604052806008548152602001828152602001600081526020013373ffffffffffffffffffffffffffffffffffffffff16815250600960006008548152602001908152602001600020600082015181600001556020820151816001019080519060200190610d27929190611d49565b506040820151816002015560608201518160030160006101000a81548173ffffffffffffffffffffffffffffffffffffffff021916908373ffffffffffffffffffffffffffffffffffffffff1602179055509050507f03d0e272ff804e9024b222f7a73f0c1b2deba6c7be8917773bdf62fcb6c3850c60085482600033604051610db49493929190612759565b60405180910390a150565b6060610dca82611017565b6000600660008481526020019081526020016000208054610dea90612a15565b80601f0160208091040260200160405190810160405280929190818152602001828054610e1690612a15565b8015610e635780601f10610e3857610100808354040283529160200191610e63565b820191906000526020600020905b815481529060010190602001808311610e4657829003601f168201915b505050505090506000610e746115e8565b9050600081511415610e8a578192505050610ecd565b600082511115610ebf578082604051602001610ea79291906124d4565b60405160208183030381529060405292505050610ecd565b610ec8846115ff565b925050505b919050565b600060076000815480929190610ee790612a78565b9190505550610ef833600754611667565b610f0460075483611685565b610f0f600754610a55565b6007549050919050565b6000600560008473ffffffffffffffffffffffffffffffffffffffff1673ffffffffffffffffffffffffffffffffffffffff16815260200190815260200160002060008373ffffffffffffffffffffffffffffffffffffffff1673ffffffffffffffffffffffffffffffffffffffff16815260200190815260200160002060009054906101000a900460ff16905092915050565b60007f01ffc9a7000000000000000000000000000000000000000000000000000000007bffffffffffffffffffffffffffffffffffffffffffffffffffffffff1916827bffffffffffffffffffffffffffffffffffffffffffffffffffffffff1916149050919050565b611020816116f9565b61105f576040517f08c379a0000000000000000000000000000000000000000000000000000000008152600401611056906126bc565b60405180910390fd5b50565b600033905090565b816004600083815260200190815260200160002060006101000a81548173ffffffffffffffffffffffffffffffffffffffff021916908373ffffffffffffffffffffffffffffffffffffffff160217905550808273ffffffffffffffffffffffffffffffffffffffff166110dd83610898565b73ffffffffffffffffffffffffffffffffffffffff167f8c5be1e5ebec7d5bd14f71427d1e84f3dd0314c0f7b2291e5b200ac8c7c3b92560405160405180910390a45050565b60008061112f83610898565b90508073ffffffffffffffffffffffffffffffffffffffff168473ffffffffffffffffffffffffffffffffffffffff16148061117157506111708185610f19565b5b806111af57508373ffffffffffffffffffffffffffffffffffffffff1661119784610591565b73ffffffffffffffffffffffffffffffffffffffff16145b91505092915050565b8273ffffffffffffffffffffffffffffffffffffffff166111d882610898565b73ffffffffffffffffffffffffffffffffffffffff161461122e576040517f08c379a0000000000000000000000000000000000000000000000000000000008152600401611225906125bc565b60405180910390fd5b600073ffffffffffffffffffffffffffffffffffffffff168273ffffffffffffffffffffffffffffffffffffffff16141561129e576040517f08c379a0000000000000000000000000000000000000000000000000000000008152600401611295906125fc565b60405180910390fd5b6112a9838383611765565b6112b460008261106a565b6001600360008573ffffffffffffffffffffffffffffffffffffffff1673ffffffffffffffffffffffffffffffffffffffff16815260200190815260200160002060008282546113049190612907565b925050819055506001600360008473ffffffffffffffffffffffffffffffffffffffff1673ffffffffffffffffffffffffffffffffffffffff168152602001908152602001600020600082825461135b9190612880565b92505081905550816002600083815260200190815260200160002060006101000a81548173ffffffffffffffffffffffffffffffffffffffff021916908373ffffffffffffffffffffffffffffffffffffffff160217905550808273ffffffffffffffffffffffffffffffffffffffff168473ffffffffffffffffffffffffffffffffffffffff167fddf252ad1be2c89b69c2b068fc378daa952ba7f163c4a11628f55a4df523b3ef60405160405180910390a461141a83838361176a565b505050565b8173ffffffffffffffffffffffffffffffffffffffff168373ffffffffffffffffffffffffffffffffffffffff16141561148e576040517f08c379a00000000000000000000000000000000000000000000000000000000081526004016114859061261c565b60405180910390fd5b80600560008573ffffffffffffffffffffffffffffffffffffffff1673ffffffffffffffffffffffffffffffffffffffff16815260200190815260200160002060008473ffffffffffffffffffffffffffffffffffffffff1673ffffffffffffffffffffffffffffffffffffffff16815260200190815260200160002060006101000a81548160ff0219169083151502179055508173ffffffffffffffffffffffffffffffffffffffff168373ffffffffffffffffffffffffffffffffffffffff167f17307eab39ab6107e8899845ad3d59bd9653f200f220920489ca2b5937696c318360405161157f919061255f565b60405180910390a3505050565b6115978484846111b8565b6115a38484848461176f565b6115e2576040517f08c379a00000000000000000000000000000000000000000000000000000000081526004016115d99061259c565b60405180910390fd5b50505050565b606060405180602001604052806000815250905090565b606061160a82611017565b60006116146115e8565b90506000815111611634576040518060200160405280600081525061165f565b8061163e84611906565b60405160200161164f9291906124d4565b6040516020818303038152906040525b915050919050565b611681828260405180602001604052806000815250611ab3565b5050565b61168e826116f9565b6116cd576040517f08c379a00000000000000000000000000000000000000000000000000000000081526004016116c49061265c565b60405180910390fd5b806006600084815260200190815260200160002090805190602001906116f4929190611d49565b505050565b60008073ffffffffffffffffffffffffffffffffffffffff166002600084815260200190815260200160002060009054906101000a900473ffffffffffffffffffffffffffffffffffffffff1673ffffffffffffffffffffffffffffffffffffffff1614159050919050565b505050565b505050565b60006117908473ffffffffffffffffffffffffffffffffffffffff16611b0e565b156118f9578373ffffffffffffffffffffffffffffffffffffffff1663150b7a026117b9611062565b8786866040518563ffffffff1660e01b81526004016117db9493929190612513565b602060405180830381600087803b1580156117f557600080fd5b505af192505050801561182657506040513d601f19601f8201168201806040525081019061182391906120f5565b60015b6118a9573d8060008114611856576040519150601f19603f3d011682016040523d82523d6000602084013e61185b565b606091505b506000815114156118a1576040517f08c379a00000000000000000000000000000000000000000000000000000000081526004016118989061259c565b60405180910390fd5b805181602001fd5b63150b7a0260e01b7bffffffffffffffffffffffffffffffffffffffffffffffffffffffff1916817bffffffffffffffffffffffffffffffffffffffffffffffffffffffff1916149150506118fe565b600190505b949350505050565b6060600082141561194e576040518060400160405280600181526020017f30000000000000000000000000000000000000000000000000000000000000008152509050611aae565b600082905060005b6000821461198057808061196990612a78565b915050600a8261197991906128d6565b9150611956565b60008167ffffffffffffffff8111156119c2577f4e487b7100000000000000000000000000000000000000000000000000000000600052604160045260246000fd5b6040519080825280601f01601f1916602001820160405280156119f45781602001600182028036833780820191505090505b5090505b60008514611aa757600182611a0d9190612907565b9150600a85611a1c9190612ac1565b6030611a289190612880565b60f81b818381518110611a64577f4e487b7100000000000000000000000000000000000000000000000000000000600052603260045260246000fd5b60200101907effffffffffffffffffffffffffffffffffffffffffffffffffffffffffffff1916908160001a905350600a85611aa091906128d6565b94506119f8565b8093505050505b919050565b611abd8383611b31565b611aca600084848461176f565b611b09576040517f08c379a0000000000000000000000000000000000000000000000000000000008152600401611b009061259c565b60405180910390fd5b505050565b6000808273ffffffffffffffffffffffffffffffffffffffff163b119050919050565b600073ffffffffffffffffffffffffffffffffffffffff168273ffffffffffffffffffffffffffffffffffffffff161415611ba1576040517f08c379a0000000000000000000000000000000000000000000000000000000008152600401611b989061269c565b60405180910390fd5b611baa816116f9565b15611bea576040517f08c379a0000000000000000000000000000000000000000000000000000000008152600401611be1906125dc565b60405180910390fd5b611bf660008383611765565b6001600360008473ffffffffffffffffffffffffffffffffffffffff1673ffffffffffffffffffffffffffffffffffffffff1681526020019081526020016000206000828254611c469190612880565b92505081905550816002600083815260200190815260200160002060006101000a81548173ffffffffffffffffffffffffffffffffffffffff021916908373ffffffffffffffffffffffffffffffffffffffff160217905550808273ffffffffffffffffffffffffffffffffffffffff16600073ffffffffffffffffffffffffffffffffffffffff167fddf252ad1be2c89b69c2b068fc378daa952ba7f163c4a11628f55a4df523b3ef60405160405180910390a4611d076000838361176a565b5050565b6040518060800160405280600081526020016060815260200160008152602001600073ffffffffffffffffffffffffffffffffffffffff1681525090565b828054611d5590612a15565b90600052602060002090601f016020900481019282611d775760008555611dbe565b82601f10611d9057805160ff1916838001178555611dbe565b82800160010185558215611dbe579182015b82811115611dbd578251825591602001919060010190611da2565b5b509050611dcb9190611dcf565b5090565b5b80821115611de8576000816000905550600101611dd0565b5090565b6000611dff611dfa846127ca565b6127a5565b905082815260208101848484011115611e1757600080fd5b611e228482856129d3565b509392505050565b6000611e3d611e38846127fb565b6127a5565b905082815260208101848484011115611e5557600080fd5b611e608482856129d3565b509392505050565b600081359050611e7781612edb565b92915050565b600081359050611e8c81612ef2565b92915050565b600081359050611ea181612f09565b92915050565b600081519050611eb681612f09565b92915050565b600082601f830112611ecd57600080fd5b8135611edd848260208601611dec565b91505092915050565b600082601f830112611ef757600080fd5b8135611f07848260208601611e2a565b91505092915050565b600081359050611f1f81612f20565b92915050565b600060208284031215611f3757600080fd5b6000611f4584828501611e68565b91505092915050565b60008060408385031215611f6157600080fd5b6000611f6f85828601611e68565b9250506020611f8085828601611e68565b9150509250929050565b600080600060608486031215611f9f57600080fd5b6000611fad86828701611e68565b9350506020611fbe86828701611e68565b9250506040611fcf86828701611f10565b9150509250925092565b60008060008060808587031215611fef57600080fd5b6000611ffd87828801611e68565b945050602061200e87828801611e68565b935050604061201f87828801611f10565b925050606085013567ffffffffffffffff81111561203c57600080fd5b61204887828801611ebc565b91505092959194509250565b6000806040838503121561206757600080fd5b600061207585828601611e68565b925050602061208685828601611e7d565b9150509250929050565b600080604083850312156120a357600080fd5b60006120b185828601611e68565b92505060206120c285828601611f10565b9150509250929050565b6000602082840312156120de57600080fd5b60006120ec84828501611e92565b91505092915050565b60006020828403121561210757600080fd5b600061211584828501611ea7565b91505092915050565b60006020828403121561213057600080fd5b600082013567ffffffffffffffff81111561214a57600080fd5b61215684828501611ee6565b91505092915050565b60006020828403121561217157600080fd5b600061217f84828501611f10565b91505092915050565b6121918161294d565b82525050565b6121a08161294d565b82525050565b6121af8161293b565b82525050565b6121be8161295f565b82525050565b60006121cf8261282c565b6121d98185612842565b93506121e98185602086016129e2565b6121f281612bae565b840191505092915050565b612206816129c1565b82525050565b600061221782612837565b6122218185612853565b93506122318185602086016129e2565b61223a81612bae565b840191505092915050565b600061225082612837565b61225a8185612864565b935061226a8185602086016129e2565b61227381612bae565b840191505092915050565b600061228982612837565b6122938185612875565b93506122a38185602086016129e2565b80840191505092915050565b60006122bc603283612864565b91506122c782612bbf565b604082019050919050565b60006122df602583612864565b91506122ea82612c0e565b604082019050919050565b6000612302601c83612864565b915061230d82612c5d565b602082019050919050565b6000612325602483612864565b915061233082612c86565b604082019050919050565b6000612348601983612864565b915061235382612cd5565b602082019050919050565b600061236b602983612864565b915061237682612cfe565b604082019050919050565b600061238e602e83612864565b915061239982612d4d565b604082019050919050565b60006123b1603e83612864565b91506123bc82612d9c565b604082019050919050565b60006123d4602083612864565b91506123df82612deb565b602082019050919050565b60006123f7601883612864565b915061240282612e14565b602082019050919050565b600061241a602183612864565b915061242582612e3d565b604082019050919050565b600061243d602e83612864565b915061244882612e8c565b604082019050919050565b600060808301600083015161246b60008601826124b6565b5060208301518482036020860152612483828261220c565b915050604083015161249860408601826124b6565b5060608301516124ab6060860182612188565b508091505092915050565b6124bf816129b7565b82525050565b6124ce816129b7565b82525050565b60006124e0828561227e565b91506124ec828461227e565b91508190509392505050565b600060208201905061250d60008301846121a6565b92915050565b600060808201905061252860008301876121a6565b61253560208301866121a6565b61254260408301856124c5565b818103606083015261255481846121c4565b905095945050505050565b600060208201905061257460008301846121b5565b92915050565b600060208201905081810360008301526125948184612245565b905092915050565b600060208201905081810360008301526125b5816122af565b9050919050565b600060208201905081810360008301526125d5816122d2565b9050919050565b600060208201905081810360008301526125f5816122f5565b9050919050565b6000602082019050818103600083015261261581612318565b9050919050565b600060208201905081810360008301526126358161233b565b9050919050565b600060208201905081810360008301526126558161235e565b9050919050565b6000602082019050818103600083015261267581612381565b9050919050565b60006020820190508181036000830152612695816123a4565b9050919050565b600060208201905081810360008301526126b5816123c7565b9050919050565b600060208201905081810360008301526126d5816123ea565b9050919050565b600060208201905081810360008301526126f58161240d565b9050919050565b6000602082019050818103600083015261271581612430565b9050919050565b600060208201905081810360008301526127368184612453565b905092915050565b600060208201905061275360008301846124c5565b92915050565b600060808201905061276e60008301876124c5565b81810360208301526127808186612245565b905061278f60408301856121fd565b61279c6060830184612197565b95945050505050565b60006127af6127c0565b90506127bb8282612a47565b919050565b6000604051905090565b600067ffffffffffffffff8211156127e5576127e4612b7f565b5b6127ee82612bae565b9050602081019050919050565b600067ffffffffffffffff82111561281657612815612b7f565b5b61281f82612bae565b9050602081019050919050565b600081519050919050565b600081519050919050565b600082825260208201905092915050565b600082825260208201905092915050565b600082825260208201905092915050565b600081905092915050565b600061288b826129b7565b9150612896836129b7565b9250827fffffffffffffffffffffffffffffffffffffffffffffffffffffffffffffffff038211156128cb576128ca612af2565b5b828201905092915050565b60006128e1826129b7565b91506128ec836129b7565b9250826128fc576128fb612b21565b5b828204905092915050565b6000612912826129b7565b915061291d836129b7565b9250828210156129305761292f612af2565b5b828203905092915050565b600061294682612997565b9050919050565b600061295882612997565b9050919050565b60008115159050919050565b60007fffffffff0000000000000000000000000000000000000000000000000000000082169050919050565b600073ffffffffffffffffffffffffffffffffffffffff82169050919050565b6000819050919050565b60006129cc826129b7565b9050919050565b82818337600083830152505050565b60005b83811015612a005780820151818401526020810190506129e5565b83811115612a0f576000848401525b50505050565b60006002820490506001821680612a2d57607f821691505b60208210811415612a4157612a40612b50565b5b50919050565b612a5082612bae565b810181811067ffffffffffffffff82111715612a6f57612a6e612b7f565b5b80604052505050565b6000612a83826129b7565b91507fffffffffffffffffffffffffffffffffffffffffffffffffffffffffffffffff821415612ab657612ab5612af2565b5b600182019050919050565b6000612acc826129b7565b9150612ad7836129b7565b925082612ae757612ae6612b21565b5b828206905092915050565b7f4e487b7100000000000000000000000000000000000000000000000000000000600052601160045260246000fd5b7f4e487b7100000000000000000000000000000000000000000000000000000000600052601260045260246000fd5b7f4e487b7100000000000000000000000000000000000000000000000000000000600052602260045260246000fd5b7f4e487b7100000000000000000000000000000000000000000000000000000000600052604160045260246000fd5b6000601f19601f8301169050919050565b7f4552433732313a207472616e7366657220746f206e6f6e20455243373231526560008201527f63656976657220696d706c656d656e7465720000000000000000000000000000602082015250565b7f4552433732313a207472616e736665722066726f6d20696e636f72726563742060008201527f6f776e6572000000000000000000000000000000000000000000000000000000602082015250565b7f4552433732313a20746f6b656e20616c7265616479206d696e74656400000000600082015250565b7f4552433732313a207472616e7366657220746f20746865207a65726f2061646460008201527f7265737300000000000000000000000000000000000000000000000000000000602082015250565b7f4552433732313a20617070726f766520746f2063616c6c657200000000000000600082015250565b7f4552433732313a2061646472657373207a65726f206973206e6f74206120766160008201527f6c6964206f776e65720000000000000000000000000000000000000000000000602082015250565b7f45524337323155524953746f726167653a2055524920736574206f66206e6f6e60008201527f6578697374656e7420746f6b656e000000000000000000000000000000000000602082015250565b7f4552433732313a20617070726f76652063616c6c6572206973206e6f7420746f60008201527f6b656e206f776e6572206e6f7220617070726f76656420666f7220616c6c0000602082015250565b7f4552433732313a206d696e7420746f20746865207a65726f2061646472657373600082015250565b7f4552433732313a20696e76616c696420746f6b656e2049440000000000000000600082015250565b7f4552433732313a20617070726f76616c20746f2063757272656e74206f776e6560008201527f7200000000000000000000000000000000000000000000000000000000000000602082015250565b7f4552433732313a2063616c6c6572206973206e6f7420746f6b656e206f776e6560008201527f72206e6f7220617070726f766564000000000000000000000000000000000000602082015250565b612ee48161293b565b8114612eef57600080fd5b50565b612efb8161295f565b8114612f0657600080fd5b50565b612f128161296b565b8114612f1d57600080fd5b50565b612f29816129b7565b8114612f3457600080fd5b5056fea26469706673582212204153f49c94c8e679b1a9d1588491e1884bcef3b6c823c59a7d7cdfa3e112a81264736f6c63430008040033",
  "linkReferences": {},
  "deployedLinkReferences": {}
}